{
    "contractName": "BinarySystem",
    "abi": [
        {
            "inputs": [],
            "stateMutability": "nonpayable",
            "type": "constructor"
        },
        {
            "anonymous": false,
            "inputs": [
                {
                    "indexed": true,
                    "internalType": "address",
                    "name": "previousOwner",
                    "type": "address"
                },
                {
                    "indexed": true,
                    "internalType": "address",
                    "name": "newOwner",
                    "type": "address"
                }
            ],
            "name": "OwnershipTransferred",
            "type": "event"
        },
        {
            "stateMutability": "payable",
            "type": "fallback"
        },
        {
            "inputs": [
                {
                    "internalType": "address",
                    "name": "_tokenTRC20",
                    "type": "address"
                }
            ],
            "name": "ChangeTokenOTRO",
            "outputs": [
                {
                    "internalType": "bool",
                    "name": "",
                    "type": "bool"
                }
            ],
            "stateMutability": "nonpayable",
            "type": "function"
        },
        {
            "inputs": [
                {
                    "internalType": "address",
                    "name": "_tokenTRC20",
                    "type": "address"
                }
            ],
            "name": "ChangeTokenPrincipal",
            "outputs": [
                {
                    "internalType": "bool",
                    "name": "",
                    "type": "bool"
                }
            ],
            "stateMutability": "nonpayable",
            "type": "function"
        },
        {
            "inputs": [
                {
                    "internalType": "address",
                    "name": "_tokenTRC20",
                    "type": "address"
                }
            ],
            "name": "ChangeTokenSalida",
            "outputs": [
                {
                    "internalType": "bool",
                    "name": "",
                    "type": "bool"
                }
            ],
            "stateMutability": "nonpayable",
            "type": "function"
        },
        {
            "inputs": [],
            "name": "MIN_RETIRO",
            "outputs": [
                {
                    "internalType": "uint256",
                    "name": "",
                    "type": "uint256"
                }
            ],
            "stateMutability": "view",
            "type": "function"
        },
        {
            "inputs": [],
            "name": "MIN_RETIRO_interno",
            "outputs": [
                {
                    "internalType": "uint256",
                    "name": "",
                    "type": "uint256"
                }
            ],
            "stateMutability": "view",
            "type": "function"
        },
        {
            "inputs": [
                {
                    "internalType": "uint256",
                    "name": "",
                    "type": "uint256"
                }
            ],
            "name": "active",
            "outputs": [
                {
                    "internalType": "bool",
                    "name": "",
                    "type": "bool"
                }
            ],
            "stateMutability": "view",
            "type": "function"
        },
        {
            "inputs": [
                {
                    "internalType": "address[]",
                    "name": "oldNetwork",
                    "type": "address[]"
                }
            ],
            "name": "actualizarNetwork",
            "outputs": [
                {
                    "internalType": "address[]",
                    "name": "",
                    "type": "address[]"
                }
            ],
            "stateMutability": "pure",
            "type": "function"
        },
        {
            "inputs": [
                {
                    "internalType": "uint256",
                    "name": "_value",
                    "type": "uint256"
                }
            ],
            "name": "addPlan",
            "outputs": [
                {
                    "internalType": "uint256[]",
                    "name": "",
                    "type": "uint256[]"
                }
            ],
            "stateMutability": "nonpayable",
            "type": "function"
        },
        {
            "inputs": [
                {
                    "internalType": "address",
                    "name": "",
                    "type": "address"
                }
            ],
            "name": "addressToId",
            "outputs": [
                {
                    "internalType": "uint256",
                    "name": "",
                    "type": "uint256"
                }
            ],
            "stateMutability": "view",
            "type": "function"
        },
        {
            "inputs": [
                {
                    "internalType": "address[]",
                    "name": "network",
                    "type": "address[]"
                }
            ],
            "name": "allnetwork",
            "outputs": [
                {
                    "internalType": "address[]",
                    "name": "",
                    "type": "address[]"
                }
            ],
            "stateMutability": "view",
            "type": "function"
        },
        {
            "inputs": [],
            "name": "api",
            "outputs": [
                {
                    "internalType": "address",
                    "name": "",
                    "type": "address"
                }
            ],
            "stateMutability": "view",
            "type": "function"
        },
        {
            "inputs": [
                {
                    "internalType": "address",
                    "name": "_user",
                    "type": "address"
                },
                {
                    "internalType": "uint256",
                    "name": "_plan",
                    "type": "uint256"
                },
                {
                    "internalType": "address",
                    "name": "_sponsor",
                    "type": "address"
                },
                {
                    "internalType": "uint256",
                    "name": "_hand",
                    "type": "uint256"
                }
            ],
            "name": "asignarPlan",
            "outputs": [
                {
                    "internalType": "bool",
                    "name": "",
                    "type": "bool"
                }
            ],
            "stateMutability": "nonpayable",
            "type": "function"
        },
        {
            "inputs": [
                {
                    "internalType": "address",
                    "name": "_user",
                    "type": "address"
                },
                {
                    "internalType": "uint256",
                    "name": "_puntosLeft",
                    "type": "uint256"
                },
                {
                    "internalType": "uint256",
                    "name": "_puntosRigth",
                    "type": "uint256"
                }
            ],
            "name": "asignarPuntosBinarios",
            "outputs": [
                {
                    "internalType": "bool",
                    "name": "",
                    "type": "bool"
                }
            ],
            "stateMutability": "nonpayable",
            "type": "function"
        },
        {
            "inputs": [],
            "name": "basePorcientos",
            "outputs": [
                {
                    "internalType": "uint256",
                    "name": "",
                    "type": "uint256"
                }
            ],
            "stateMutability": "view",
            "type": "function"
        },
        {
            "inputs": [
                {
                    "internalType": "uint256",
                    "name": "_plan",
                    "type": "uint256"
                }
            ],
            "name": "buyPlan",
            "outputs": [],
            "stateMutability": "nonpayable",
            "type": "function"
        },
        {
            "inputs": [
                {
                    "internalType": "uint256",
                    "name": "_value",
                    "type": "uint256"
                }
            ],
            "name": "buyValue",
            "outputs": [
                {
                    "internalType": "uint256",
                    "name": "",
                    "type": "uint256"
                }
            ],
            "stateMutability": "view",
            "type": "function"
        },
        {
            "inputs": [
                {
                    "internalType": "address",
                    "name": "yo",
                    "type": "address"
                },
                {
                    "internalType": "uint256",
                    "name": "_largo",
                    "type": "uint256"
                }
            ],
            "name": "column",
            "outputs": [
                {
                    "internalType": "address[]",
                    "name": "",
                    "type": "address[]"
                }
            ],
            "stateMutability": "view",
            "type": "function"
        },
        {
            "inputs": [
                {
                    "internalType": "bool",
                    "name": "_true_false",
                    "type": "bool"
                }
            ],
            "name": "controlBinario",
            "outputs": [
                {
                    "internalType": "bool",
                    "name": "",
                    "type": "bool"
                }
            ],
            "stateMutability": "nonpayable",
            "type": "function"
        },
        {
            "inputs": [
                {
                    "internalType": "bool",
                    "name": "_true_false",
                    "type": "bool"
                }
            ],
            "name": "controlReferidos",
            "outputs": [
                {
                    "internalType": "bool",
                    "name": "",
                    "type": "bool"
                }
            ],
            "stateMutability": "nonpayable",
            "type": "function"
        },
        {
            "inputs": [],
            "name": "descuento",
            "outputs": [
                {
                    "internalType": "uint256",
                    "name": "",
                    "type": "uint256"
                }
            ],
            "stateMutability": "view",
            "type": "function"
        },
        {
            "inputs": [],
            "name": "dias",
            "outputs": [
                {
                    "internalType": "uint256",
                    "name": "",
                    "type": "uint256"
                }
            ],
            "stateMutability": "view",
            "type": "function"
        },
        {
            "inputs": [
                {
                    "internalType": "address",
                    "name": "_user",
                    "type": "address"
                }
            ],
            "name": "handLeft",
            "outputs": [
                {
                    "internalType": "uint256",
                    "name": "extra",
                    "type": "uint256"
                },
                {
                    "internalType": "uint256",
                    "name": "lost",
                    "type": "uint256"
                },
                {
                    "internalType": "uint256",
                    "name": "reclamados",
                    "type": "uint256"
                },
                {
                    "internalType": "address",
                    "name": "referer",
                    "type": "address"
                }
            ],
            "stateMutability": "view",
            "type": "function"
        },
        {
            "inputs": [
                {
                    "internalType": "address",
                    "name": "_user",
                    "type": "address"
                }
            ],
            "name": "handRigth",
            "outputs": [
                {
                    "internalType": "uint256",
                    "name": "extra",
                    "type": "uint256"
                },
                {
                    "internalType": "uint256",
                    "name": "lost",
                    "type": "uint256"
                },
                {
                    "internalType": "uint256",
                    "name": "reclamados",
                    "type": "uint256"
                },
                {
                    "internalType": "address",
                    "name": "referer",
                    "type": "address"
                }
            ],
            "stateMutability": "view",
            "type": "function"
        },
        {
            "inputs": [
                {
                    "internalType": "uint256",
                    "name": "",
                    "type": "uint256"
                }
            ],
            "name": "idToAddress",
            "outputs": [
                {
                    "internalType": "address",
                    "name": "",
                    "type": "address"
                }
            ],
            "stateMutability": "view",
            "type": "function"
        },
        {
            "inputs": [
                {
                    "internalType": "address[]",
                    "name": "network",
                    "type": "address[]"
                }
            ],
            "name": "insertionLeft",
            "outputs": [
                {
                    "internalType": "address",
                    "name": "wallet",
                    "type": "address"
                }
            ],
            "stateMutability": "view",
            "type": "function"
        },
        {
            "inputs": [
                {
                    "internalType": "address[]",
                    "name": "network",
                    "type": "address[]"
                }
            ],
            "name": "insertionRigth",
            "outputs": [
                {
                    "internalType": "address",
                    "name": "wallet",
                    "type": "address"
                }
            ],
            "stateMutability": "view",
            "type": "function"
        },
        {
            "inputs": [
                {
                    "internalType": "address",
                    "name": "",
                    "type": "address"
                }
            ],
            "name": "investors",
            "outputs": [
                {
                    "internalType": "bool",
                    "name": "registered",
                    "type": "bool"
                },
                {
                    "internalType": "bool",
                    "name": "recompensa",
                    "type": "bool"
                },
                {
                    "internalType": "bool",
                    "name": "pasivo",
                    "type": "bool"
                },
                {
                    "internalType": "uint256",
                    "name": "plan",
                    "type": "uint256"
                },
                {
                    "internalType": "uint256",
                    "name": "balanceRef",
                    "type": "uint256"
                },
                {
                    "internalType": "uint256",
                    "name": "totalRef",
                    "type": "uint256"
                },
                {
                    "internalType": "uint256",
                    "name": "amount",
                    "type": "uint256"
                },
                {
                    "internalType": "uint256",
                    "name": "almacen",
                    "type": "uint256"
                },
                {
                    "internalType": "uint256",
                    "name": "inicio",
                    "type": "uint256"
                },
                {
                    "internalType": "uint256",
                    "name": "invested",
                    "type": "uint256"
                },
                {
                    "internalType": "uint256",
                    "name": "paidAt",
                    "type": "uint256"
                },
                {
                    "internalType": "uint256",
                    "name": "withdrawn",
                    "type": "uint256"
                },
                {
                    "internalType": "uint256",
                    "name": "directos",
                    "type": "uint256"
                },
                {
                    "components": [
                        {
                            "internalType": "uint256",
                            "name": "lReclamados",
                            "type": "uint256"
                        },
                        {
                            "internalType": "uint256",
                            "name": "lLost",
                            "type": "uint256"
                        },
                        {
                            "internalType": "uint256",
                            "name": "lExtra",
                            "type": "uint256"
                        },
                        {
                            "internalType": "address",
                            "name": "lReferer",
                            "type": "address"
                        },
                        {
                            "internalType": "uint256",
                            "name": "rReclamados",
                            "type": "uint256"
                        },
                        {
                            "internalType": "uint256",
                            "name": "rLost",
                            "type": "uint256"
                        },
                        {
                            "internalType": "uint256",
                            "name": "rExtra",
                            "type": "uint256"
                        },
                        {
                            "internalType": "address",
                            "name": "rReferer",
                            "type": "address"
                        }
                    ],
                    "internalType": "struct BinarySystem.Hand",
                    "name": "hands",
                    "type": "tuple"
                }
            ],
            "stateMutability": "view",
            "type": "function"
        },
        {
            "inputs": [],
            "name": "lastUserId",
            "outputs": [
                {
                    "internalType": "uint256",
                    "name": "",
                    "type": "uint256"
                }
            ],
            "stateMutability": "view",
            "type": "function"
        },
        {
            "inputs": [],
            "name": "maxTime",
            "outputs": [
                {
                    "internalType": "uint256",
                    "name": "",
                    "type": "uint256"
                }
            ],
            "stateMutability": "view",
            "type": "function"
        },
        {
            "inputs": [],
            "name": "owner",
            "outputs": [
                {
                    "internalType": "address payable",
                    "name": "",
                    "type": "address"
                }
            ],
            "stateMutability": "view",
            "type": "function"
        },
        {
            "inputs": [
                {
                    "internalType": "address",
                    "name": "",
                    "type": "address"
                }
            ],
            "name": "padre",
            "outputs": [
                {
                    "internalType": "address",
                    "name": "",
                    "type": "address"
                }
            ],
            "stateMutability": "view",
            "type": "function"
        },
        {
            "inputs": [
                {
                    "internalType": "uint256",
                    "name": "_value",
                    "type": "uint256"
                }
            ],
            "name": "payValue",
            "outputs": [
                {
                    "internalType": "uint256",
                    "name": "",
                    "type": "uint256"
                }
            ],
            "stateMutability": "view",
            "type": "function"
        },
        {
            "inputs": [],
            "name": "personas",
            "outputs": [
                {
                    "internalType": "uint256",
                    "name": "",
                    "type": "uint256"
                }
            ],
            "stateMutability": "view",
            "type": "function"
        },
        {
            "inputs": [
                {
                    "internalType": "address",
                    "name": "any_user",
                    "type": "address"
                }
            ],
            "name": "personasBinary",
            "outputs": [
                {
                    "internalType": "uint256",
                    "name": "left",
                    "type": "uint256"
                },
                {
                    "internalType": "uint256",
                    "name": "pLeft",
                    "type": "uint256"
                },
                {
                    "internalType": "uint256",
                    "name": "rigth",
                    "type": "uint256"
                },
                {
                    "internalType": "uint256",
                    "name": "pRigth",
                    "type": "uint256"
                }
            ],
            "stateMutability": "view",
            "type": "function"
        },
        {
            "inputs": [
                {
                    "internalType": "uint256",
                    "name": "",
                    "type": "uint256"
                }
            ],
            "name": "plans",
            "outputs": [
                {
                    "internalType": "uint256",
                    "name": "",
                    "type": "uint256"
                }
            ],
            "stateMutability": "view",
            "type": "function"
        },
        {
            "inputs": [],
            "name": "plansLength",
            "outputs": [
                {
                    "internalType": "uint8",
                    "name": "",
                    "type": "uint8"
                }
            ],
            "stateMutability": "view",
            "type": "function"
        },
        {
            "inputs": [],
            "name": "porcent",
            "outputs": [
                {
                    "internalType": "uint256",
                    "name": "",
                    "type": "uint256"
                }
            ],
            "stateMutability": "view",
            "type": "function"
        },
        {
            "inputs": [],
            "name": "porcentPuntosBinario",
            "outputs": [
                {
                    "internalType": "uint256",
                    "name": "",
                    "type": "uint256"
                }
            ],
            "stateMutability": "view",
            "type": "function"
        },
        {
            "inputs": [],
            "name": "porcientoBuy",
            "outputs": [
                {
                    "internalType": "uint256",
                    "name": "",
                    "type": "uint256"
                }
            ],
            "stateMutability": "view",
            "type": "function"
        },
        {
            "inputs": [],
            "name": "porcientoPay",
            "outputs": [
                {
                    "internalType": "uint256",
                    "name": "",
                    "type": "uint256"
                }
            ],
            "stateMutability": "view",
            "type": "function"
        },
        {
            "inputs": [
                {
                    "internalType": "uint256",
                    "name": "",
                    "type": "uint256"
                }
            ],
            "name": "porcientos",
            "outputs": [
                {
                    "internalType": "uint256",
                    "name": "",
                    "type": "uint256"
                }
            ],
            "stateMutability": "view",
            "type": "function"
        },
        {
            "inputs": [],
            "name": "precioRegistro",
            "outputs": [
                {
                    "internalType": "uint256",
                    "name": "",
                    "type": "uint256"
                }
            ],
            "stateMutability": "view",
            "type": "function"
        },
        {
            "inputs": [
                {
                    "internalType": "uint256",
                    "name": "",
                    "type": "uint256"
                }
            ],
            "name": "primervez",
            "outputs": [
                {
                    "internalType": "uint256",
                    "name": "",
                    "type": "uint256"
                }
            ],
            "stateMutability": "view",
            "type": "function"
        },
        {
            "inputs": [
                {
                    "internalType": "address",
                    "name": "any_user",
                    "type": "address"
                }
            ],
            "name": "profit",
            "outputs": [
                {
                    "internalType": "uint256",
                    "name": "",
                    "type": "uint256"
                },
                {
                    "internalType": "uint256",
                    "name": "",
                    "type": "uint256"
                },
                {
                    "internalType": "uint256",
                    "name": "",
                    "type": "uint256"
                },
                {
                    "internalType": "uint256",
                    "name": "",
                    "type": "uint256"
                }
            ],
            "stateMutability": "view",
            "type": "function"
        },
        {
            "inputs": [],
            "name": "rate",
            "outputs": [
                {
                    "internalType": "uint256",
                    "name": "",
                    "type": "uint256"
                }
            ],
            "stateMutability": "view",
            "type": "function"
        },
        {
            "inputs": [],
            "name": "rate2",
            "outputs": [
                {
                    "internalType": "uint256",
                    "name": "",
                    "type": "uint256"
                }
            ],
            "stateMutability": "view",
            "type": "function"
        },
        {
            "inputs": [],
            "name": "rateSell",
            "outputs": [
                {
                    "internalType": "uint256",
                    "name": "",
                    "type": "uint256"
                }
            ],
            "stateMutability": "view",
            "type": "function"
        },
        {
            "inputs": [],
            "name": "redimOTRO",
            "outputs": [
                {
                    "internalType": "uint256",
                    "name": "",
                    "type": "uint256"
                }
            ],
            "stateMutability": "nonpayable",
            "type": "function"
        },
        {
            "inputs": [],
            "name": "redimSITE01",
            "outputs": [
                {
                    "internalType": "uint256",
                    "name": "",
                    "type": "uint256"
                }
            ],
            "stateMutability": "nonpayable",
            "type": "function"
        },
        {
            "inputs": [
                {
                    "internalType": "uint256",
                    "name": "_value",
                    "type": "uint256"
                }
            ],
            "name": "redimSITE02",
            "outputs": [
                {
                    "internalType": "uint256",
                    "name": "",
                    "type": "uint256"
                }
            ],
            "stateMutability": "nonpayable",
            "type": "function"
        },
        {
            "inputs": [],
            "name": "redimTRX",
            "outputs": [
                {
                    "internalType": "uint256",
                    "name": "",
                    "type": "uint256"
                }
            ],
            "stateMutability": "nonpayable",
            "type": "function"
        },
        {
            "inputs": [
                {
                    "internalType": "address",
                    "name": "_sponsor",
                    "type": "address"
                },
                {
                    "internalType": "uint8",
                    "name": "_hand",
                    "type": "uint8"
                }
            ],
            "name": "registro",
            "outputs": [],
            "stateMutability": "nonpayable",
            "type": "function"
        },
        {
            "inputs": [
                {
                    "internalType": "uint256",
                    "name": "_level",
                    "type": "uint256"
                },
                {
                    "internalType": "bool",
                    "name": "_value",
                    "type": "bool"
                }
            ],
            "name": "setActive",
            "outputs": [
                {
                    "internalType": "uint256",
                    "name": "",
                    "type": "uint256"
                },
                {
                    "internalType": "bool",
                    "name": "",
                    "type": "bool"
                }
            ],
            "stateMutability": "nonpayable",
            "type": "function"
        },
        {
            "inputs": [
                {
                    "internalType": "bool[]",
                    "name": "_values",
                    "type": "bool[]"
                }
            ],
            "name": "setActiveAll",
            "outputs": [
                {
                    "internalType": "bool[]",
                    "name": "",
                    "type": "bool[]"
                }
            ],
            "stateMutability": "nonpayable",
            "type": "function"
        },
        {
            "inputs": [
                {
                    "internalType": "uint256",
                    "name": "_base100",
                    "type": "uint256"
                }
            ],
            "name": "setBase",
            "outputs": [
                {
                    "internalType": "uint256",
                    "name": "",
                    "type": "uint256"
                }
            ],
            "stateMutability": "nonpayable",
            "type": "function"
        },
        {
            "inputs": [
                {
                    "internalType": "uint256",
                    "name": "_porcentajePago",
                    "type": "uint256"
                },
                {
                    "internalType": "uint256",
                    "name": "_personasBinario",
                    "type": "uint256"
                }
            ],
            "name": "setDescuentoPorNoTrabajo",
            "outputs": [
                {
                    "internalType": "uint256",
                    "name": "",
                    "type": "uint256"
                },
                {
                    "internalType": "uint256",
                    "name": "",
                    "type": "uint256"
                }
            ],
            "stateMutability": "nonpayable",
            "type": "function"
        },
        {
            "inputs": [
                {
                    "internalType": "uint256",
                    "name": "_min",
                    "type": "uint256"
                }
            ],
            "name": "setMIN_RETIRO",
            "outputs": [
                {
                    "internalType": "uint256",
                    "name": "",
                    "type": "uint256"
                }
            ],
            "stateMutability": "nonpayable",
            "type": "function"
        },
        {
            "inputs": [
                {
                    "internalType": "uint256",
                    "name": "_porcentajemaximoParahacerUpgrade",
                    "type": "uint256"
                }
            ],
            "name": "setMaxTime",
            "outputs": [
                {
                    "internalType": "uint256",
                    "name": "",
                    "type": "uint256"
                }
            ],
            "stateMutability": "nonpayable",
            "type": "function"
        },
        {
            "inputs": [
                {
                    "internalType": "uint256",
                    "name": "_level",
                    "type": "uint256"
                },
                {
                    "internalType": "uint256",
                    "name": "_value",
                    "type": "uint256"
                }
            ],
            "name": "setPlans",
            "outputs": [
                {
                    "internalType": "uint256",
                    "name": "",
                    "type": "uint256"
                },
                {
                    "internalType": "uint256",
                    "name": "",
                    "type": "uint256"
                }
            ],
            "stateMutability": "nonpayable",
            "type": "function"
        },
        {
            "inputs": [
                {
                    "internalType": "uint256[]",
                    "name": "_values",
                    "type": "uint256[]"
                }
            ],
            "name": "setPlansAll",
            "outputs": [
                {
                    "internalType": "uint256[]",
                    "name": "",
                    "type": "uint256[]"
                }
            ],
            "stateMutability": "nonpayable",
            "type": "function"
        },
        {
            "inputs": [
                {
                    "internalType": "uint256",
                    "name": "_nivel",
                    "type": "uint256"
                },
                {
                    "internalType": "uint256",
                    "name": "_value",
                    "type": "uint256"
                }
            ],
            "name": "setPorcientos",
            "outputs": [
                {
                    "internalType": "uint256[]",
                    "name": "",
                    "type": "uint256[]"
                }
            ],
            "stateMutability": "nonpayable",
            "type": "function"
        },
        {
            "inputs": [
                {
                    "internalType": "uint256",
                    "name": "_nivel",
                    "type": "uint256"
                },
                {
                    "internalType": "uint256",
                    "name": "_value",
                    "type": "uint256"
                }
            ],
            "name": "setPrimeravezPorcientos",
            "outputs": [
                {
                    "internalType": "uint256[]",
                    "name": "",
                    "type": "uint256[]"
                }
            ],
            "stateMutability": "nonpayable",
            "type": "function"
        },
        {
            "inputs": [
                {
                    "internalType": "uint256",
                    "name": "_porcentaje",
                    "type": "uint256"
                }
            ],
            "name": "setPuntosPorcentajeBinario",
            "outputs": [
                {
                    "internalType": "uint256",
                    "name": "",
                    "type": "uint256"
                }
            ],
            "stateMutability": "nonpayable",
            "type": "function"
        },
        {
            "inputs": [
                {
                    "internalType": "uint256",
                    "name": "_rateBuy",
                    "type": "uint256"
                },
                {
                    "internalType": "uint256",
                    "name": "_rateSell",
                    "type": "uint256"
                }
            ],
            "name": "setRates",
            "outputs": [],
            "stateMutability": "nonpayable",
            "type": "function"
        },
        {
            "inputs": [
                {
                    "internalType": "uint256",
                    "name": "_porcentaje",
                    "type": "uint256"
                }
            ],
            "name": "setRetorno",
            "outputs": [
                {
                    "internalType": "uint256",
                    "name": "",
                    "type": "uint256"
                }
            ],
            "stateMutability": "nonpayable",
            "type": "function"
        },
        {
            "inputs": [
                {
                    "internalType": "uint256",
                    "name": "_dias",
                    "type": "uint256"
                }
            ],
            "name": "setTiempo",
            "outputs": [
                {
                    "internalType": "uint256",
                    "name": "",
                    "type": "uint256"
                }
            ],
            "stateMutability": "nonpayable",
            "type": "function"
        },
        {
            "inputs": [
                {
                    "internalType": "uint256",
                    "name": "_unidades",
                    "type": "uint256"
                }
            ],
            "name": "setTiempoUnidades",
            "outputs": [
                {
                    "internalType": "uint256",
                    "name": "",
                    "type": "uint256"
                }
            ],
            "stateMutability": "nonpayable",
            "type": "function"
        },
        {
            "inputs": [
                {
                    "internalType": "address",
                    "name": "_wallet",
                    "type": "address"
                }
            ],
            "name": "setWalletApi",
            "outputs": [
                {
                    "internalType": "address",
                    "name": "",
                    "type": "address"
                }
            ],
            "stateMutability": "nonpayable",
            "type": "function"
        },
        {
            "inputs": [
                {
                    "internalType": "address",
                    "name": "_wallet1",
                    "type": "address"
                },
                {
                    "internalType": "address",
                    "name": "_wallet2",
                    "type": "address"
                },
                {
                    "internalType": "address",
                    "name": "_wallet3",
                    "type": "address"
                }
            ],
            "name": "setWalletstransfers",
            "outputs": [
                {
                    "internalType": "address",
                    "name": "",
                    "type": "address"
                },
                {
                    "internalType": "address",
                    "name": "",
                    "type": "address"
                },
                {
                    "internalType": "address",
                    "name": "",
                    "type": "address"
                }
            ],
            "stateMutability": "nonpayable",
            "type": "function"
        },
        {
            "inputs": [
                {
                    "internalType": "uint256",
                    "name": "_buy",
                    "type": "uint256"
                },
                {
                    "internalType": "uint256",
                    "name": "_pay",
                    "type": "uint256"
                }
            ],
            "name": "setporcientoBuyPay",
            "outputs": [
                {
                    "internalType": "uint256",
                    "name": "",
                    "type": "uint256"
                },
                {
                    "internalType": "uint256",
                    "name": "",
                    "type": "uint256"
                }
            ],
            "stateMutability": "nonpayable",
            "type": "function"
        },
        {
            "inputs": [],
            "name": "setstate",
            "outputs": [
                {
                    "internalType": "uint256",
                    "name": "Investors",
                    "type": "uint256"
                },
                {
                    "internalType": "uint256",
                    "name": "Invested",
                    "type": "uint256"
                },
                {
                    "internalType": "uint256",
                    "name": "RefRewards",
                    "type": "uint256"
                }
            ],
            "stateMutability": "view",
            "type": "function"
        },
        {
            "inputs": [],
            "name": "sisBinario",
            "outputs": [
                {
                    "internalType": "bool",
                    "name": "",
                    "type": "bool"
                }
            ],
            "stateMutability": "view",
            "type": "function"
        },
        {
            "inputs": [],
            "name": "sisReferidos",
            "outputs": [
                {
                    "internalType": "bool",
                    "name": "",
                    "type": "bool"
                }
            ],
            "stateMutability": "view",
            "type": "function"
        },
        {
            "inputs": [],
            "name": "tiempo",
            "outputs": [
                {
                    "internalType": "uint256",
                    "name": "",
                    "type": "uint256"
                }
            ],
            "stateMutability": "view",
            "type": "function"
        },
        {
            "inputs": [],
            "name": "tokenPago",
            "outputs": [
                {
                    "internalType": "address",
                    "name": "",
                    "type": "address"
                }
            ],
            "stateMutability": "view",
            "type": "function"
        },
        {
            "inputs": [],
            "name": "tokenPricipal",
            "outputs": [
                {
                    "internalType": "address",
                    "name": "",
                    "type": "address"
                }
            ],
            "stateMutability": "view",
            "type": "function"
        },
        {
            "inputs": [],
            "name": "totalInvested",
            "outputs": [
                {
                    "internalType": "uint256",
                    "name": "",
                    "type": "uint256"
                }
            ],
            "stateMutability": "view",
            "type": "function"
        },
        {
            "inputs": [],
            "name": "totalInvestors",
            "outputs": [
                {
                    "internalType": "uint256",
                    "name": "",
                    "type": "uint256"
                }
            ],
            "stateMutability": "view",
            "type": "function"
        },
        {
            "inputs": [],
            "name": "totalRefRewards",
            "outputs": [
                {
                    "internalType": "uint256",
                    "name": "",
                    "type": "uint256"
                }
            ],
            "stateMutability": "view",
            "type": "function"
        },
        {
            "inputs": [],
            "name": "transfer1",
            "outputs": [
                {
                    "internalType": "bool",
                    "name": "",
                    "type": "bool"
                }
            ],
            "stateMutability": "view",
            "type": "function"
        },
        {
            "inputs": [],
            "name": "transfer2",
            "outputs": [
                {
                    "internalType": "bool",
                    "name": "",
                    "type": "bool"
                }
            ],
            "stateMutability": "view",
            "type": "function"
        },
        {
            "inputs": [],
            "name": "transfer3",
            "outputs": [
                {
                    "internalType": "bool",
                    "name": "",
                    "type": "bool"
                }
            ],
            "stateMutability": "view",
            "type": "function"
        },
        {
            "inputs": [
                {
                    "internalType": "address payable",
                    "name": "newOwner",
                    "type": "address"
                }
            ],
            "name": "transferOwnership",
            "outputs": [],
            "stateMutability": "nonpayable",
            "type": "function"
        },
        {
            "inputs": [],
            "name": "unidades",
            "outputs": [
                {
                    "internalType": "uint256",
                    "name": "",
                    "type": "uint256"
                }
            ],
            "stateMutability": "view",
            "type": "function"
        },
        {
            "inputs": [
                {
                    "internalType": "uint256",
                    "name": "_plan",
                    "type": "uint256"
                }
            ],
            "name": "upGradePlan",
            "outputs": [],
            "stateMutability": "nonpayable",
            "type": "function"
        },
        {
            "inputs": [],
            "name": "wallet1",
            "outputs": [
                {
                    "internalType": "address",
                    "name": "",
                    "type": "address"
                }
            ],
            "stateMutability": "view",
            "type": "function"
        },
        {
            "inputs": [],
            "name": "wallet2",
            "outputs": [
                {
                    "internalType": "address",
                    "name": "",
                    "type": "address"
                }
            ],
            "stateMutability": "view",
            "type": "function"
        },
        {
            "inputs": [],
            "name": "wallet3",
            "outputs": [
                {
                    "internalType": "address",
                    "name": "",
                    "type": "address"
                }
            ],
            "stateMutability": "view",
            "type": "function"
        },
        {
            "inputs": [],
            "name": "withdraw",
            "outputs": [],
            "stateMutability": "nonpayable",
            "type": "function"
        },
        {
            "inputs": [],
            "name": "withdrawToDeposit",
            "outputs": [],
            "stateMutability": "nonpayable",
            "type": "function"
        },
        {
            "inputs": [
                {
                    "internalType": "address",
                    "name": "any_user",
                    "type": "address"
                }
            ],
            "name": "withdrawable",
            "outputs": [
                {
                    "internalType": "uint256",
                    "name": "amount",
                    "type": "uint256"
                }
            ],
            "stateMutability": "view",
            "type": "function"
        },
        {
            "inputs": [
                {
                    "internalType": "address",
                    "name": "any_user",
                    "type": "address"
                }
            ],
            "name": "withdrawableBinary",
            "outputs": [
                {
                    "internalType": "uint256",
                    "name": "left",
                    "type": "uint256"
                },
                {
                    "internalType": "uint256",
                    "name": "rigth",
                    "type": "uint256"
                },
                {
                    "internalType": "uint256",
                    "name": "amount",
                    "type": "uint256"
                }
            ],
            "stateMutability": "view",
            "type": "function"
        },
        {
            "stateMutability": "payable",
            "type": "receive"
        }
    ],
    "bytecode": "600180547366d6e5ba1544bbb5b10afe9e0e45f6e3c297838a6001600160a01b0319918216811790925560028054821683179055600380548216831790556004805490911690911790556402540be4006005908155620f42406009819055600a556064600b819055600c8190556101206040526080908152600060a081905260c081905260e0819052610100526200009b91600d919062000333565b506040805160a081018252600080825260208201819052918101829052606081018290526080810191909152620000d790600e90600562000333565b5060408051610200810182526000815264012a05f20060208201526402540be400918101919091526404a817c8006060820152640ba43b7400608082015264174876e80060a0820152642e90edd00060c082015264746a52880060e082015264e8d4a510006101008201526501d1a94a200061012082015265048c273950006101408201526509184e72a0006101608201526512309ce54000610180820152652d79883d20006101a0820152655af3107a40006101c082015265b5e620f480006101e0820152620001ad90600f90601062000388565b506040805161020081018252600080825260208201819052918101829052606081018290526080810182905260a0810182905260c08101829052600160e08201819052610100820181905261012082018190526101408201819052610160820181905261018082018190526101a08201526101c081018290526101e08101919091526200023e9060109081620003d0565b506103e86011556012805461ffff19166101011790556001601381905562015180601455605a60155560c8601655600a60175560646018556002601981905564012a05f200601a55601b919091556022553480156200029c57600080fd5b5060008054336001600160a01b031991821681178355808352601e6020908152604080852060268054861685179055602580548616851790556024805486168517905560238054861685179055805461ffff19166101011790557f156774b33c8bc7cb83eda4cbc43b36c7c9490ff8913c488ccd5132cfc71344ea8054909416909217909255602190915290206001905562000489565b82805482825590600052602060002090810192821562000376579160200282015b8281111562000376578251829060ff1690559160200191906001019062000354565b506200038492915062000472565b5090565b82805482825590600052602060002090810192821562000376579160200282015b8281111562000376578251829065ffffffffffff16905591602001919060010190620003a9565b82805482825590600052602060002090601f01602090048101928215620003765791602002820160005b838211156200043957835183826101000a81548160ff0219169083151502179055509260200192600101602081600001049283019260010302620003fa565b8015620004685782816101000a81549060ff021916905560010160208160000104928301926001030262000439565b5050620003849291505b5b8082111562000384576000815560010162000473565b6152ed80620004996000396000f3fe6080604052600436106104cb5760003560e01c8063725fc27011610274578063b16206161161014e578063ce513b6f116100c6578063ebe690bd11610082578063ebe690bd14611199578063edc2fe29146111b9578063f2fde38b146111d9578063f555b815146111f9578063f90b3f5a1461120f578063faafa9071461122f57005b8063ce513b6f146110a4578063ce51abb7146110c4578063d2c18e0b146110da578063d8de4064146110fa578063e506e1c01461111a578063e60a955d1461116457005b8063c2307ee611610115578063c2307ee614610ff6578063c510c0601461100c578063c8065ede1461102c578063cb0e0d7d1461104c578063cc759ba214611079578063cdb8bb2a1461108f57005b8063b162061614610f4a578063b35f0a8f14610f6a578063b9be8cdc14610fa0578063bfe0e02014610fc0578063c14b836114610fd657005b80638da5cb5b116101ec578063a00a8c9b116101a8578063a00a8c9b14610e9f578063a80b223b14610eb4578063a95b4df914610ed4578063ab6db19914610ef4578063ac6af28014610f0a578063b139042614610f2a57005b80638da5cb5b14610dca5780639496e6f814610dea57806396ba536314610e1f57806398b777e714610e3f5780639d1a5ea114610e5f5780639de8c3cf14610e7f57005b80637e8ff94d1161023b5780637e8ff94d14610d135780637f65816614610d295780637faee04714610d435780638033d58114610d6357806385338e2014610d835780638929cbc514610db557005b8063725fc27014610c9257806372c5dd3414610cb257806378f1567114610cd25780637b0412ed14610ce75780637db9e9c614610cfd57005b80634b9b8203116103a55780635a090c2d1161031d5780636999c45e116102d95780636999c45e14610a5b5780636a88e29714610a7b5780636bf199ff14610acf5780636c52927914610aef5780636d038a0314610b055780636f7bc9be14610b2557005b80635a090c2d146109a757806364417c89146109c75780636589fa8a146109e75780636657a04014610a0757806367583cf814610a2657806368b058eb14610a4657005b80634e929b0f1161036c5780634e929b0f1461089f57806350188c08146108bf57806350da983f146108d45780635216aeec146108f4578063548225221461090a57806355465fa51461092a57005b80634b9b8203146108065780634bdcd4291461081c5780634dbc9d15146108325780634de1be621461085f5780634e0e33231461087f57005b80632748d29b11610443578063348d4487116103ff578063348d44871461076557806338e80f681461077b5780633c918bae1461079b5780633ccfd60b146107bb57806342ccc234146107d05780634728f718146107f057005b80632748d29b146106a357806328cca719146106c357806329b8caff146106e35780632a2d0c47146106f95780632c4e722e1461072e578063343bfdff1461074457005b80631ce7f99b116104925780631ce7f99b146105be5780631e403c35146105de57806321adf6a41461060b57806322e67e711461063c578063248c44e81461066057806326837aa81461068157005b806302550e4d146104d45780630b8d0a281461051957806315e8392b1461055157806316a644161461057e5780631a026c961461059e57005b366104d257005b005b3480156104e057600080fd5b506104f46104ef366004614aa3565b611245565b6040805194855260208501939093529183015260608201526080015b60405180910390f35b34801561052557600080fd5b50602554610539906001600160a01b031681565b6040516001600160a01b039091168152602001610510565b34801561055d57600080fd5b5061057161056c366004614b0b565b61138e565b6040516105109190614e6d565b34801561058a57600080fd5b50600854610539906001600160a01b031681565b3480156105aa57600080fd5b50602454610539906001600160a01b031681565b3480156105ca57600080fd5b506105716105d9366004614bf3565b611425565b3480156105ea57600080fd5b506105fe6105f9366004614e4b565b6114e4565b6040516105109190614ef4565b34801561061757600080fd5b5060265461062c90600160b01b900460ff1681565b6040519015158152602001610510565b34801561064857600080fd5b5061065260155481565b604051908152602001610510565b34801561066c57600080fd5b5060265461062c90600160a81b900460ff1681565b34801561068d57600080fd5b50600f5460405160ff9091168152602001610510565b3480156106af57600080fd5b506106526106be366004614df4565b611579565b3480156106cf57600080fd5b506106526106de366004614df4565b61159a565b3480156106ef57600080fd5b50610652601b5481565b34801561070557600080fd5b50610539610714366004614df4565b60208052600090815260409020546001600160a01b031681565b34801561073a57600080fd5b5061065260095481565b34801561075057600080fd5b5060265461062c90600160a01b900460ff1681565b34801561077157600080fd5b5061065260225481565b34801561078757600080fd5b50610652610796366004614df4565b6115bb565b3480156107a757600080fd5b50602654610539906001600160a01b031681565b3480156107c757600080fd5b506104d26115dc565b3480156107dc57600080fd5b506105396107eb366004614bf3565b611a1f565b3480156107fc57600080fd5b5061065260165481565b34801561081257600080fd5b5061065260145481565b34801561082857600080fd5b5061065260065481565b34801561083e57600080fd5b5061085261084d366004614c99565b611b0c565b6040516105109190614eba565b34801561086b57600080fd5b5061065261087a366004614df4565b611bb2565b34801561088b57600080fd5b506105fe61089a366004614d2e565b611bd3565b3480156108ab57600080fd5b506104f46108ba366004614aa3565b611c58565b3480156108cb57600080fd5b50610652611e6d565b3480156108e057600080fd5b5061062c6108ef366004614aa3565b611e8b565b34801561090057600080fd5b50610652601c5481565b34801561091657600080fd5b506105fe610925366004614e4b565b611ed6565b34801561093657600080fd5b5061097e610945366004614aa3565b6001600160a01b039081166000908152601e60205260409020600d810154600c820154600b830154600e90930154919490939190911690565b604080519485526020850193909352918301526001600160a01b03166060820152608001610510565b3480156109b357600080fd5b5061062c6109c2366004614b7f565b611f69565b3480156109d357600080fd5b506106526109e2366004614df4565b611fda565b3480156109f357600080fd5b50610652610a02366004614df4565b611ffb565b348015610a1357600080fd5b5060125461062c90610100900460ff1681565b348015610a3257600080fd5b50610652610a41366004614df4565b61201c565b348015610a5257600080fd5b506106526120c4565b348015610a6757600080fd5b506105fe610a76366004614df4565b6120df565b348015610a8757600080fd5b5061097e610a96366004614aa3565b6001600160a01b039081166000908152601e6020526040902060118101546010820154600f830154601290930154919490939190911690565b348015610adb57600080fd5b50610539610aea366004614bf3565b6121c4565b348015610afb57600080fd5b5061065260055481565b348015610b1157600080fd5b5061062c610b20366004614aa3565b612299565b348015610b3157600080fd5b50610c78610b40366004614aa3565b601e6020528060005260406000206000915090508060000160009054906101000a900460ff16908060000160019054906101000a900460ff16908060000160029054906101000a900460ff169080600101549080600201549080600301549080600401549080600501549080600601549080600701549080600801549080600901549080600a01549080600b01604051806101000160405290816000820154815260200160018201548152602001600282015481526020016003820160009054906101000a90046001600160a01b03166001600160a01b03166001600160a01b031681526020016004820154815260200160058201548152602001600682015481526020016007820160009054906101000a90046001600160a01b03166001600160a01b03166001600160a01b03168152505090508e565b6040516105109e9d9c9b9a99989796959493929190614f2c565b348015610c9e57600080fd5b50610652610cad366004614df4565b6122e4565b348015610cbe57600080fd5b506104d2610ccd366004614df4565b6122f4565b348015610cde57600080fd5b5061065261290b565b348015610cf357600080fd5b5061065260185481565b348015610d0957600080fd5b50610652601a5481565b348015610d1f57600080fd5b50610652600c5481565b348015610d3557600080fd5b5060125461062c9060ff1681565b348015610d4f57600080fd5b50610571610d5e366004614bf3565b612a30565b348015610d6f57600080fd5b5061062c610d7e366004614df4565b612bf0565b348015610d8f57600080fd5b50601b54601c54601d545b60408051938452602084019290925290820152606001610510565b348015610dc157600080fd5b50610652612c24565b348015610dd657600080fd5b50600054610539906001600160a01b031681565b348015610df657600080fd5b50610e0a610e05366004614e4b565b612d00565b60408051928352602083019190915201610510565b348015610e2b57600080fd5b5061062c610e3a366004614aa3565b612d4f565b348015610e4b57600080fd5b50610652610e5a366004614df4565b612d8c565b348015610e6b57600080fd5b5061062c610e7a366004614dba565b612dad565b348015610e8b57600080fd5b50610e0a610e9a366004614e4b565b612ddc565b348015610eab57600080fd5b506104d2612e1c565b348015610ec057600080fd5b506104d2610ecf366004614df4565b612f9c565b348015610ee057600080fd5b50610d9a610eef366004614aa3565b61337f565b348015610f0057600080fd5b5061065260135481565b348015610f1657600080fd5b506104d2610f25366004614e4b565b613697565b348015610f3657600080fd5b50600754610539906001600160a01b031681565b348015610f5657600080fd5b50610652610f65366004614df4565b61370a565b348015610f7657600080fd5b50610539610f85366004614aa3565b601f602052600090815260409020546001600160a01b031681565b348015610fac57600080fd5b50610652610fbb366004614df4565b61371a565b348015610fcc57600080fd5b50610652601d5481565b348015610fe257600080fd5b506104d2610ff1366004614bb4565b613883565b34801561100257600080fd5b5061065260175481565b34801561101857600080fd5b50610539611027366004614aa3565b613d6c565b34801561103857600080fd5b50610652611047366004614df4565b613da3565b34801561105857600080fd5b50610652611067366004614aa3565b60216020526000908152604090205481565b34801561108557600080fd5b5061065260195481565b34801561109b57600080fd5b50610652613e07565b3480156110b057600080fd5b506106526110bf366004614aa3565b613e60565b3480156110d057600080fd5b50610652600b5481565b3480156110e657600080fd5b50602354610539906001600160a01b031681565b34801561110657600080fd5b5061062c611115366004614dba565b613f38565b34801561112657600080fd5b5061113a611135366004614ac0565b613f62565b604080516001600160a01b0394851681529284166020840152921691810191909152606001610510565b34801561117057600080fd5b5061118461117f366004614e26565b614095565b60408051928352901515602083015201610510565b3480156111a557600080fd5b5061062c6111b4366004614b37565b6140f9565b3480156111c557600080fd5b50610e0a6111d4366004614e4b565b614659565b3480156111e557600080fd5b506104d26111f4366004614aa3565b614683565b34801561120557600080fd5b50610652600a5481565b34801561121b57600080fd5b5061065261122a366004614df4565b614708565b34801561123b57600080fd5b5061065260115481565b6001600160a01b0381166000908152601e60205260408120600481015460028201548392839283928391829182808061127d8d61337f565b97509093509150821580159061129257508115155b801561129d57508515155b80156112ae5750600288600a015410155b15611310578585106112d7576112c4868661521d565b94506112d086886150d9565b96506112e8565b600094506112e585886150d9565b96505b426112ff6112f4611e6d565b60068b015490614729565b1061130c57506001611310565b5060025b6113198d613e60565b851061134e576113288d613e60565b611332908661521d565b945061133d8d613e60565b61134790886150d9565b965061135f565b6000945061135c85886150d9565b96505b61136984886150d9565b965087600501548761137b91906150d9565b9d929c50909a5098509650505050505050565b60608060005b8381101561141b576113a582611425565b6001600160a01b038087166000908152601f6020526040902054825192945016908390839081106113d8576113d8615265565b6001600160a01b039283166020918202929092018101919091529581166000908152601f909652604090952054909416938061141381615234565b915050611394565b5090505b92915050565b606060008251600161143791906150d9565b67ffffffffffffffff81111561144f5761144f61527b565b604051908082528060200260200182016040528015611478578160200160208202803683370190505b50905060005b83518110156114dd5783818151811061149957611499615265565b60200260200101518282815181106114b3576114b3615265565b6001600160a01b0390921660209283029190910190910152806114d581615234565b91505061147e565b5092915050565b6000546060906001600160a01b031633146114fe57600080fd5b81600e848154811061151257611512615265565b9060005260206000200181905550600e80548060200260200160405190810160405280929190818152602001828054801561156c57602002820191906000526020600020905b815481526020019060010190808311611558575b5050505050905092915050565b600080546001600160a01b0316331461159157600080fd5b50601481905590565b600e81815481106115aa57600080fd5b600091825260209091200154905081565b600080546001600160a01b031633146115d357600080fd5b50601181905590565b336000818152601e60205260408120918190819081906115fb90611245565b9296509094509250905061160e8461201c565b6003546040516370a0823160e01b81523060048201526001600160a01b03909116906370a082319060240160206040518083038186803b15801561165157600080fd5b505afa158015611665573d6000803e3d6000fd5b505050506040513d601f19601f820116820180604052508101906116899190614e0d565b10156116dc5760405162461bcd60e51b815260206004820152601b60248201527f54686520636f6e747261637420686173206e6f2062616c616e6365000000000060448201526064015b60405180910390fd5b60055484101561173a5760405162461bcd60e51b8152602060048201526024808201527f546865206d696e696d756d207769746864726177616c206c696d69742072656160448201526318da195960e21b60648201526084016116d3565b60195485600a0154106117e6576003546001600160a01b031663a9059cbb336117628761201c565b6040516001600160e01b031960e085901b1681526001600160a01b0390921660048301526024820152604401602060405180830381600087803b1580156117a857600080fd5b505af11580156117bc573d6000803e3d6000fd5b505050506040513d601f19601f820116820180604052508101906117e09190614dd7565b506118a0565b6003546018546001600160a01b039091169063a9059cbb9033906118209060649061181a906118148b61201c565b9061474c565b9061477e565b6040516001600160e01b031960e085901b1681526001600160a01b0390921660048301526024820152604401602060405180830381600087803b15801561186657600080fd5b505af115801561187a573d6000803e3d6000fd5b505050506040513d601f19601f8201168201806040525081019061189e9190614dd7565b505b806001141561192857818310156118ef578285600b0160000160008282546118c891906150d9565b9091555050600f850180548491906000906118e49084906150d9565b909155506119289050565b8185600b01600001600082825461190691906150d9565b9091555050600f850180548391906000906119229084906150d9565b90915550505b80600214156119b05781831015611977578285600b01600101600082825461195091906150d9565b909155505060108501805484919060009061196c9084906150d9565b909155506119b09050565b8185600b01600101600082825461198e91906150d9565b90915550506010850180548391906000906119aa9084906150d9565b90915550505b6119ce856005015486600201546119c791906150d9565b85906147a0565b8560040160008282546119e1919061521d565b92505081905550838560090160008282546119fc91906150d9565b909155505042600886015550506000600284018190556005909301929092555050565b6000805b8251811015611afc576000601e6000858481518110611a4457611a44615265565b6020908102919091018101516001600160a01b0390811683529082019290925260400160002060128101549092501680611a9c57848381518110611a8a57611a8a615265565b60200260200101519350505050919050565b611aa585611425565b9450808560018751611ab7919061521d565b81518110611ac757611ac7615265565b60200260200101906001600160a01b031690816001600160a01b03168152505050508080611af490615234565b915050611a23565b50611b0682611a1f565b50919050565b6000546060906001600160a01b03163314611b2657600080fd5b8151611b399060109060208501906149ae565b506010805480602002602001604051908101604052809291908181526020018280548015611ba657602002820191906000526020600020906000905b825461010083900a900460ff161515815260206001928301818104948501949093039092029101808411611b755790505b50505050509050919050565b600080546001600160a01b03163314611bca57600080fd5b50600581905590565b6000546060906001600160a01b03163314611bed57600080fd5b8151611c0090600f906020850190614a53565b50600f805480602002602001604051908101604052809291908181526020018280548015611ba657602002820191906000526020600020905b815481526020019060010190808311611c395750505050509050919050565b6001600160a01b038082166000908152601e60205260408120600e810154919283928392839290911615611d62576060611c9181611425565b600e83015481519192506001600160a01b0316908290600090611cb657611cb6615265565b60200260200101906001600160a01b031690816001600160a01b031681525050611cdf81612a30565b905060005b8151811015611d5f57601e6000838381518110611d0357611d03615265565b60200260200101516001600160a01b03166001600160a01b031681526020019081526020016000209250826007015487611d3d91906150d9565b965085611d4981615234565b9650508080611d5790615234565b915050611ce4565b50505b506001600160a01b038086166000908152601e60205260409020601281015490911615611e65576060611d9481611425565b601283015481519192506001600160a01b0316908290600090611db957611db9615265565b60200260200101906001600160a01b031690816001600160a01b031681525050611de281612a30565b905060005b8151811015611e6257601e6000838381518110611e0657611e06615265565b60200260200101516001600160a01b03166001600160a01b031681526020019081526020016000209250826007015485611e4091906150d9565b945083611e4c81615234565b9450508080611e5a90615234565b915050611de7565b50505b509193509193565b6000611e8660145460135461474c90919063ffffffff16565b905090565b600080546001600160a01b03163314611ea357600080fd5b50600280546001600160a01b0383166001600160a01b031991821681179092556007805490911690911790556001919050565b6000546060906001600160a01b03163314611ef057600080fd5b81600d8481548110611f0457611f04615265565b9060005260206000200181905550600d80548060200260200160405190810160405280929190818152602001828054801561156c5760200282019190600052602060002090815481526020019060010190808311611558575050505050905092915050565b600080546001600160a01b03163314611f8157600080fd5b6001600160a01b0384166000908152601e60205260408120600d8101805491928692611fae9084906150d9565b9091555050601181018054849190600090611fca9084906150d9565b9091555060019695505050505050565b600080546001600160a01b03163314611ff257600080fd5b50601781905590565b600080546001600160a01b0316331461201357600080fd5b50601681905590565b600061141f606461181a600c546118146120346120c4565b6003546040805163313ce56760e01b8152905161181a926001600160a01b03169163313ce567916004808301926020929190829003018186803b15801561207a57600080fd5b505afa15801561208e573d6000803e3d6000fd5b505050506040513d601f19601f820116820180604052508101906120b29190614e0d565b6120bd90600a615156565b899061474c565b6000600a54600954146120d85750600a5490565b5060095490565b6000546060906001600160a01b031633146120f957600080fd5b600f8054600181810183557f8d1108e10bcb7c27dddfc02ed9d693a074039d026cf4ea4240b40f7d581ac80290910184905560108054918201815560005260208082047f1b6847dc741a1b0cd08d278845f9d819d87b734759afb55fe2de5cb82a9ae67201805460ff601f9094166101000a9384021916909217909155815460408051828402810184019091528181529291830182828015611ba65760200282019190600052602060002090815481526020019060010190808311611c395750505050509050919050565b6000805b825181101561228f576000601e60008584815181106121e9576121e9615265565b6020908102919091018101516001600160a01b03908116835290820192909252604001600020600e810154909250168061222f57848381518110611a8a57611a8a615265565b61223885611425565b945080856001875161224a919061521d565b8151811061225a5761225a615265565b60200260200101906001600160a01b031690816001600160a01b0316815250505050808061228790615234565b9150506121c8565b50611b06826121c4565b600080546001600160a01b031633146122b157600080fd5b50600380546001600160a01b0383166001600160a01b031991821681179092556008805490911690911790556001919050565b600d81815481106115aa57600080fd5b336000908152601e60205260409020600681015415801590612336575042612333612328606461181a601554611814611e6d565b600684015490614729565b10155b15612906578060010154600f838154811061235357612353615265565b9060005260206000200154116123c25760405162461bcd60e51b815260206004820152602e60248201527f7469656e65207175652073657220756e20706c616e206d61796f72207061726160448201526d206861636572207570677261646560901b60648201526084016116d3565b601082815481106123d5576123d5615265565b90600052602060002090602091828204019190069054906101000a900460ff166124115760405162461bcd60e51b81526004016116d39061502e565b60006124478260010154600f858154811061242e5761242e615265565b90600052602060002001546147a090919063ffffffff16565b905061245281613da3565b600254604051636eb1769f60e11b81523360048201523060248201526001600160a01b039091169063dd62ed3e9060440160206040518083038186803b15801561249b57600080fd5b505afa1580156124af573d6000803e3d6000fd5b505050506040513d601f19601f820116820180604052508101906124d39190614e0d565b10156124f15760405162461bcd60e51b81526004016116d390614fff565b6002546001600160a01b03166323b872dd333061250d85613da3565b6040516001600160e01b031960e086901b1681526001600160a01b0393841660048201529290911660248301526044820152606401602060405180830381600087803b15801561255c57600080fd5b505af1158015612570573d6000803e3d6000fd5b505050506040513d601f19601f820116820180604052508101906125949190614dd7565b6125b05760405162461bcd60e51b81526004016116d390615058565b426006830155600f8054849081106125ca576125ca615265565b60009182526020909120015460018301556016546125f4906125ed90606461477e565b829061474c565b82600401600082825461260791906150d9565b925050819055508082600701600082825461262291906150d9565b9091555050336000908152601f60205260409020546001600160a01b031615801590612650575060125460ff165b156126b0576126b03382600e8054806020026020016040519081016040528092919081815260200182805480156126a657602002820191906000526020600020905b815481526020019060010190808311612692575b50505050506147bb565b80601c60008282546126c291906150d9565b9091555050602654600160a01b900460ff1615612785576002546024546001600160a01b039182169163a9059cbb9116612705606461181a600a61181488613da3565b6040516001600160e01b031960e085901b1681526001600160a01b0390921660048301526024820152604401602060405180830381600087803b15801561274b57600080fd5b505af115801561275f573d6000803e3d6000fd5b505050506040513d601f19601f820116820180604052508101906127839190614dd7565b505b602654600160a81b900460ff1615612843576002546025546001600160a01b039182169163a9059cbb91166127c3606461181a600761181488613da3565b6040516001600160e01b031960e085901b1681526001600160a01b0390921660048301526024820152604401602060405180830381600087803b15801561280957600080fd5b505af115801561281d573d6000803e3d6000fd5b505050506040513d601f19601f820116820180604052508101906128419190614dd7565b505b602654600160b01b900460ff1615612901576002546026546001600160a01b039182169163a9059cbb9116612881606461181a600a61181488613da3565b6040516001600160e01b031960e085901b1681526001600160a01b0390921660048301526024820152604401602060405180830381600087803b1580156128c757600080fd5b505af11580156128db573d6000803e3d6000fd5b505050506040513d601f19601f820116820180604052508101906128ff9190614dd7565b505b505050565b600080fd5b600080546001600160a01b0316331461292357600080fd5b6002546040516370a0823160e01b81523060048201526000916001600160a01b0316906370a082319060240160206040518083038186803b15801561296757600080fd5b505afa15801561297b573d6000803e3d6000fd5b505050506040513d601f19601f8201168201806040525081019061299f9190614e0d565b60025460005460405163a9059cbb60e01b81526001600160a01b03918216600482015260248101849052929350169063a9059cbb906044015b602060405180830381600087803b1580156129f257600080fd5b505af1158015612a06573d6000803e3d6000fd5b505050506040513d601f19601f82011682018060405250810190612a2a9190614dd7565b50905090565b606060005b8251811015612be9576000601e6000858481518110612a5657612a56615265565b6020908102919091018101516001600160a01b039081168352908201929092526040016000908120600e810154601282015491945083169216905b8651811015612b1c57868181518110612aac57612aac615265565b60200260200101516001600160a01b0316836001600160a01b03161415612ad257600092505b868181518110612ae457612ae4615265565b60200260200101516001600160a01b0316826001600160a01b03161415612b0a57600091505b80612b1481615234565b915050612a91565b506001600160a01b03821615612b7857612b3586611425565b9550818660018851612b47919061521d565b81518110612b5757612b57615265565b60200260200101906001600160a01b031690816001600160a01b0316815250505b6001600160a01b03811615612bd357612b9086611425565b9550808660018851612ba2919061521d565b81518110612bb257612bb2615265565b60200260200101906001600160a01b031690816001600160a01b0316815250505b5050508080612be190615234565b915050612a35565b5090919050565b60108181548110612c0057600080fd5b9060005260206000209060209182820401919006915054906101000a900460ff1681565b600080546001600160a01b03163314612c3c57600080fd5b600480546040516370a0823160e01b815230928101929092526000916001600160a01b03909116906370a082319060240160206040518083038186803b158015612c8557600080fd5b505afa158015612c99573d6000803e3d6000fd5b505050506040513d601f19601f82011682018060405250810190612cbd9190614e0d565b6004805460005460405163a9059cbb60e01b81526001600160a01b039182169381019390935260248301849052929350919091169063a9059cbb906044016129d8565b6000805481906001600160a01b03163314612d1a57600080fd5b612d28836305f5e1006151fe565b600f8581548110612d3b57612d3b615265565b600091825260209091200155509192909150565b600080546001600160a01b03163314612d6757600080fd5b50600480546001600160a01b0383166001600160a01b03199091161790556001919050565b600080546001600160a01b03163314612da457600080fd5b50601581905590565b600080546001600160a01b03163314612dc557600080fd5b506012805461ff0019166101008315150217905590565b6000805481906001600160a01b03163314612df657600080fd5b60188490556019839055601654612e149060649061181a908761474c565b949293505050565b336000818152601e6020526040812091819081908190612e3b90611245565b929650909450925090506001811415612ecd5781831015612e94578285600b016000016000828254612e6d91906150d9565b9091555050600f85018054849190600090612e899084906150d9565b90915550612ecd9050565b8185600b016000016000828254612eab91906150d9565b9091555050600f85018054839190600090612ec79084906150d9565b90915550505b8060021415612f555781831015612f1c578285600b016001016000828254612ef591906150d9565b9091555050601085018054849190600090612f119084906150d9565b90915550612f559050565b8185600b016001016000828254612f3391906150d9565b9091555050601085018054839190600090612f4f9084906150d9565b90915550505b612f6c856005015486600201546119c791906150d9565b856004016000828254612f7f919061521d565b909155505050505060058201554260088201556000600290910155565b600f548111801590612fae5750600081115b612fec5760405162461bcd60e51b815260206004820152600f60248201526e706c616e20696e636f72726563746f60881b60448201526064016116d3565b60108181548110612fff57612fff615265565b90600052602060002090602091828204019190069054906101000a900460ff1661303b5760405162461bcd60e51b81526004016116d39061502e565b336000908152601e60205260409020805460ff1615612906576000600f838154811061306957613069615265565b9060005260206000200154905061307f81613da3565b600254604051636eb1769f60e11b81523360048201523060248201526001600160a01b039091169063dd62ed3e9060440160206040518083038186803b1580156130c857600080fd5b505afa1580156130dc573d6000803e3d6000fd5b505050506040513d601f19601f820116820180604052508101906131009190614e0d565b101561311e5760405162461bcd60e51b81526004016116d390614fff565b6002546001600160a01b03166323b872dd333061313a85613da3565b6040516001600160e01b031960e086901b1681526001600160a01b0393841660048201529290911660248301526044820152606401602060405180830381600087803b15801561318957600080fd5b505af115801561319d573d6000803e3d6000fd5b505050506040513d601f19601f820116820180604052508101906131c19190614dd7565b6131dd5760405162461bcd60e51b81526004016116d390615058565b336000908152601f60205260409020546001600160a01b031615801590613206575060125460ff165b156132cb5760018201546132725761326d3382600d8054806020026020016040519081016040528092919081815260200182805480156126a657602002820191906000526020600020908154815260200190600101908083116126925750505050506147bb565b6132cb565b6132cb3382600e8054806020026020016040519081016040528092919081815260200182805480156126a657602002820191906000526020600020908154815260200190600101908083116126925750505050506147bb565b428260060181905550808260070160008282546132e891906150d9565b90915550506016546132ff906125ed90606461477e565b82600401600082825461331291906150d9565b9250508190555061332f612328606461181a601554611814611e6d565b4210613341576001820181905561335b565b8082600101600082825461335591906150d9565b90915550505b815462ff0000191662010000178255601c80548291906000906126c29084906150d9565b6001600160a01b038082166000908152601e60205260408120600e8101549192839283929116156134785760606133b581611425565b600e83015481519192506001600160a01b03169082906000906133da576133da615265565b60200260200101906001600160a01b031690816001600160a01b03168152505061340381612a30565b905060005b815181101561347557601e600083838151811061342757613427615265565b60200260200101516001600160a01b03166001600160a01b03168152602001908152602001600020925082600701548661346191906150d9565b95508061346d81615234565b915050613408565b50505b506001600160a01b0384166000908152601e60205260409020600d8101546134a090856150d9565b600c820154600b8301549195506134b79190614729565b6134c1908561521d565b60128201549094506001600160a01b0316156135a55760606134e281611425565b601283015481519192506001600160a01b031690829060009061350757613507615265565b60200260200101906001600160a01b031690816001600160a01b03168152505061353081612a30565b905060005b81518110156135a257601e600083838151811061355457613554615265565b60200260200101516001600160a01b03166001600160a01b03168152602001908152602001600020925082600701548561358e91906150d9565b94508061359a81615234565b915050613535565b50505b506001600160a01b0384166000908152601e6020526040902060118101546135cd90846150d9565b6010820154600f8301549194506135e49190614729565b6135ee908461521d565b925082841015613649578060040154613617606461181a6017548861474c90919063ffffffff16565b1161363d57613636606461181a6017548761474c90919063ffffffff16565b915061368f565b8060040154915061368f565b8060040154613668606461181a6017548761474c90919063ffffffff16565b1161368757613636606461181a6017548661474c90919063ffffffff16565b806004015491505b509193909250565b6000546001600160a01b03163314806136ba57506023546001600160a01b031633145b6136ff5760405162461bcd60e51b81526020600482015260166024820152752737903a34b2b732b99030baba37b934bd30b1b4b7b760511b60448201526064016116d3565b600991909155600a55565b600f81815481106115aa57600080fd5b600080546001600160a01b0316331461373257600080fd5b6002546040516370a0823160e01b815230600482015283916001600160a01b0316906370a082319060240160206040518083038186803b15801561377557600080fd5b505afa158015613789573d6000803e3d6000fd5b505050506040513d601f19601f820116820180604052508101906137ad9190614e0d565b10156137fb5760405162461bcd60e51b815260206004820152601b60248201527f54686520636f6e747261637420686173206e6f2062616c616e6365000000000060448201526064016116d3565b60025460005460405163a9059cbb60e01b81526001600160a01b0391821660048201526024810185905291169063a9059cbb90604401602060405180830381600087803b15801561384b57600080fd5b505af115801561385f573d6000803e3d6000fd5b505050506040513d601f19601f82011682018060405250810190612be99190614dd7565b60018160ff1611156138c95760405162461bcd60e51b815260206004820152600f60248201526e6d616e6f20696e636f72726563746160881b60448201526064016116d3565b336000908152601e60205260409020805460ff16156139205760405162461bcd60e51b81526020600482015260136024820152727961206573746173207265676973747261646f60681b60448201526064016116d3565b601a54600254604051636eb1769f60e11b81523360048201523060248201526001600160a01b039091169063dd62ed3e9060440160206040518083038186803b15801561396c57600080fd5b505afa158015613980573d6000803e3d6000fd5b505050506040513d601f19601f820116820180604052508101906139a49190614e0d565b10156139c25760405162461bcd60e51b81526004016116d390614fff565b600254601a546040516323b872dd60e01b815233600482015230602482015260448101919091526001600160a01b03909116906323b872dd90606401602060405180830381600087803b158015613a1857600080fd5b505af1158015613a2c573d6000803e3d6000fd5b505050506040513d601f19601f82011682018060405250810190613a509190614dd7565b613a6c5760405162461bcd60e51b81526004016116d390615058565b602654600160b01b900460ff1615613b0c57600254602654601a5460405163a9059cbb60e01b81526001600160a01b039283166004820152602481019190915291169063a9059cbb90604401602060405180830381600087803b158015613ad257600080fd5b505af1158015613ae6573d6000803e3d6000fd5b505050506040513d601f19601f82011682018060405250810190613b0a9190614dd7565b505b805461ffff1916610101178155336000908152601f6020526040902080546001600160a01b0319166001600160a01b03851690811790915515801590613b595750601254610100900460ff165b15613d0d576001600160a01b0383166000908152601e60205260408120600a810180549192613b8783615234565b909155505060ff8316613c5257600e8101546001600160a01b0316613bbf57600e810180546001600160a01b03191633179055613d0b565b6060613bca81611425565b600e83015481519192506001600160a01b0316908290600090613bef57613bef615265565b60200260200101906001600160a01b031690816001600160a01b031681525050601e6000613c1c836121c4565b6001600160a01b031681526020810191909152604001600020600e810180546001600160a01b031916331790559150613d0b9050565b60128101546001600160a01b0316613c7d576012810180546001600160a01b03191633179055613d0b565b6060613c8881611425565b601283015481519192506001600160a01b0316908290600090613cad57613cad615265565b60200260200101906001600160a01b031690816001600160a01b031681525050601e6000613cda83611a1f565b6001600160a01b0316815260208101919091526040016000206012810180546001600160a01b031916331790559150505b505b601b8054906000613d1d83615234565b90915550506022805460009081526020808052604080832080546001600160a01b031916339081179091558454908452602190925282208190559190613d6283615234565b9190505550505050565b600080546001600160a01b03163314613d8457600080fd5b50602380546001600160a01b0319166001600160a01b03831617905590565b600061141f606461181a600b5461181460095461181a600260009054906101000a90046001600160a01b03166001600160a01b031663313ce5676040518163ffffffff1660e01b815260040160206040518083038186803b15801561207a57600080fd5b600080546001600160a01b03163314613e1f57600080fd5b600080546040516001600160a01b03909116914780156108fc02929091818181858888f19350505050158015613e59573d6000803e3d6000fd5b5047905090565b6001600160a01b0381166000908152601e60205260408120805462010000900460ff1615611b06576000613e92611e6d565b8260060154613ea191906150d9565b905060008260060154836008015411613ebe578260060154613ec4565b82600801545b90506000824211613ed55742613ed7565b825b905080821015613f1d57613ee9611e6d565b613ef3838361521d565b8560040154613f0291906151fe565b613f0c91906150f1565b613f1690866150d9565b9450613f2f565b6004840154613f2c90866150d9565b94505b50505050919050565b600080546001600160a01b03163314613f5057600080fd5b506012805460ff191682151517905590565b60008054819081906001600160a01b03163314613f7e57600080fd5b6001600160a01b038616613fae57602480546001600160a01b03191690556026805460ff60a01b19169055613fdf565b602480546001600160a01b0388166001600160a01b03199091161790556026805460ff60a01b1916600160a01b1790555b6001600160a01b03851661400f57602580546001600160a01b03191690556026805460ff60a81b19169055614040565b602580546001600160a01b0387166001600160a01b03199091161790556026805460ff60a81b1916600160a81b1790555b6001600160a01b0384166140655760268054600162ff000160a01b0319169055614089565b60268054600162ff000160a01b0319166001600160a01b03861617600160b01b1790555b50939492935090919050565b6000805481906001600160a01b031633146140af57600080fd5b82601085815481106140c3576140c3615265565b90600052602060002090602091828204019190066101000a81548160ff0219169083151502179055508383915091509250929050565b600080546001600160a01b0316331461411157600080fd5b60018211156141545760405162461bcd60e51b815260206004820152600f60248201526e6d616e6f20696e636f72726563746160881b60448201526064016116d3565b600f5484118015906141665750600084115b6141a45760405162461bcd60e51b815260206004820152600f60248201526e706c616e20696e636f72726563746f60881b60448201526064016116d3565b601084815481106141b7576141b7615265565b90600052602060002090602091828204019190069054906101000a900460ff166141f35760405162461bcd60e51b81526004016116d39061502e565b6001600160a01b0385166000908152601e60205260408120600f80549192918790811061422257614222615265565b906000526020600020015490504282600601819055508082600701600082825461424c91906150d9565b9091555050601654614263906125ed90606461477e565b82600401600082825461427691906150d9565b909155505060018201819055815462ff00001981166201000017835560ff1661464c57815461ffff19166101011782556001600160a01b038781166000908152601f6020526040902080546001600160a01b0319169187169182179055158015906142e85750601254610100900460ff165b156145ab576001600160a01b0385166000908152601e60205260408120600a81018054919261431683615234565b9091555050846143ef57600e8101546001600160a01b031661435457600e810180546001600160a01b0319166001600160a01b038a161790556144b9565b606061435f81611425565b600e83015481519192506001600160a01b031690829060009061438457614384615265565b60200260200101906001600160a01b031690816001600160a01b031681525050601e60006143b1836121c4565b6001600160a01b0390811682526020820192909252604001600020600e810180546001600160a01b031916928c169290921790915591506144b99050565b60128101546001600160a01b0316614423576012810180546001600160a01b0319166001600160a01b038a161790556144b9565b606061442e81611425565b601283015481519192506001600160a01b031690829060009061445357614453615265565b60200260200101906001600160a01b031690816001600160a01b031681525050601e600061448083611a1f565b6001600160a01b03908116825260208201929092526040016000206012810180546001600160a01b031916928c16929092179091559150505b6001600160a01b038881166000908152601f602052604090205416158015906144e4575060125460ff165b15614542576145428883600d8054806020026020016040519081016040528092919081815260200182805480156126a657602002820191906000526020600020908154815260200190600101908083116126925750505050506147bb565b601b805490600061455283615234565b90915550506022805460009081526020808052604080832080546001600160a01b0319166001600160a01b038e1690811790915584549084526021909252822081905591906145a083615234565b919050555050614634565b6001600160a01b038781166000908152601f602052604090205416158015906145d6575060125460ff165b15614634576146348782600e8054806020026020016040519081016040528092919081815260200182805480156126a657602002820191906000526020600020908154815260200190600101908083116126925750505050506147bb565b80601c600082825461464691906150d9565b90915550505b5060019695505050505050565b6000805481906001600160a01b0316331461467357600080fd5b5050600b829055600c8190559091565b6000546001600160a01b0316331461469a57600080fd5b6001600160a01b0381166146ad57600080fd5b600080546040516001600160a01b03808516939216917f8be0079c531659141344cd1fd0a4f28419497f9722a3daafe3b4186f6b6457e091a3600080546001600160a01b0319166001600160a01b0392909216919091179055565b600080546001600160a01b0316331461472057600080fd5b50601381905590565b60008061473683856150d9565b90508381101561474557600080fd5b9392505050565b60008261475b5750600061141f565b600061476783856151fe565b90508261477485836150f1565b1461474557600080fd5b600080821161478c57600080fd5b600061479883856150f1565b949350505050565b6000828211156147af57600080fd5b6000614798838561521d565b60606147c884835161138e565b90506000805b83518110156149a6576000601e60008584815181106147ef576147ef615265565b6020908102919091018101516001600160a01b03168252810191909152604001600020805490915060ff168015614840575084828151811061483357614833615265565b6020026020010151600014155b801561485257508054610100900460ff165b156149935760006001600160a01b031684838151811061487457614874615265565b60200260200101516001600160a01b03161461498d576148bc60115461181a8785815181106148a5576148a5615265565b60200260200101518961474c90919063ffffffff16565b92508281600401541061493757828160040160008282546148dd919061521d565b92505081905550828160020160008282546148f891906150d9565b925050819055508281600301600082825461491391906150d9565b9250508190555082601d600082825461492c91906150d9565b909155506149939050565b60006004820181905560028201805482906149539082906150d9565b909155505060048101546003820180546000906149719084906150d9565b90915550506004810154601d805460009061492c9084906150d9565b506149a6565b508061499e81615234565b9150506147ce565b505050505050565b82805482825590600052602060002090601f01602090048101928215614a435791602002820160005b83821115614a1457835183826101000a81548160ff02191690831515021790555092602001926001016020816000010492830192600103026149d7565b8015614a415782816101000a81549060ff0219169055600101602081600001049283019260010302614a14565b505b50614a4f929150614a8e565b5090565b828054828255906000526020600020908101928215614a43579160200282015b82811115614a43578251825591602001919060010190614a73565b5b80821115614a4f5760008155600101614a8f565b600060208284031215614ab557600080fd5b813561474581615291565b600080600060608486031215614ad557600080fd5b8335614ae081615291565b92506020840135614af081615291565b91506040840135614b0081615291565b809150509250925092565b60008060408385031215614b1e57600080fd5b8235614b2981615291565b946020939093013593505050565b60008060008060808587031215614b4d57600080fd5b8435614b5881615291565b9350602085013592506040850135614b6f81615291565b9396929550929360600135925050565b600080600060608486031215614b9457600080fd5b8335614b9f81615291565b95602085013595506040909401359392505050565b60008060408385031215614bc757600080fd5b8235614bd281615291565b9150602083013560ff81168114614be857600080fd5b809150509250929050565b60006020808385031215614c0657600080fd5b823567ffffffffffffffff811115614c1d57600080fd5b8301601f81018513614c2e57600080fd5b8035614c41614c3c826150b5565b615084565b80828252848201915084840188868560051b8701011115614c6157600080fd5b600094505b83851015614c8d578035614c7981615291565b835260019490940193918501918501614c66565b50979650505050505050565b60006020808385031215614cac57600080fd5b823567ffffffffffffffff811115614cc357600080fd5b8301601f81018513614cd457600080fd5b8035614ce2614c3c826150b5565b80828252848201915084840188868560051b8701011115614d0257600080fd5b600094505b83851015614c8d578035614d1a816152a9565b835260019490940193918501918501614d07565b60006020808385031215614d4157600080fd5b823567ffffffffffffffff811115614d5857600080fd5b8301601f81018513614d6957600080fd5b8035614d77614c3c826150b5565b80828252848201915084840188868560051b8701011115614d9757600080fd5b600094505b83851015614c8d578035835260019490940193918501918501614d9c565b600060208284031215614dcc57600080fd5b8135614745816152a9565b600060208284031215614de957600080fd5b8151614745816152a9565b600060208284031215614e0657600080fd5b5035919050565b600060208284031215614e1f57600080fd5b5051919050565b60008060408385031215614e3957600080fd5b823591506020830135614be8816152a9565b60008060408385031215614e5e57600080fd5b50508035926020909101359150565b6020808252825182820181905260009190848201906040850190845b81811015614eae5783516001600160a01b031683529284019291840191600101614e89565b50909695505050505050565b6020808252825182820181905260009190848201906040850190845b81811015614eae578351151583529284019291840191600101614ed6565b6020808252825182820181905260009190848201906040850190845b81811015614eae57835183529284019291840191600101614f10565b8e151581528d151560208201528c151560408201526102a081018c60608301528b60808301528a60a08301528960c08301528860e08301528761010083015286610120830152856101408301528461016083015283610180830152614fec6101a0830184805182526020810151602083015260408101516040830152606081015160018060a01b0380821660608501526080830151608085015260a083015160a085015260c083015160c08501528060e08401511660e085015250505050565b9f9e505050505050505050505050505050565b6020808252601590820152746170726f7661646f20696e737566696369656e746560581b604082015260600190565b60208082526010908201526f706c616e20646573616374697661646f60801b604082015260600190565b60208082526012908201527173616c646f20696e737566696369656e746560701b604082015260600190565b604051601f8201601f1916810167ffffffffffffffff811182821017156150ad576150ad61527b565b604052919050565b600067ffffffffffffffff8211156150cf576150cf61527b565b5060051b60200190565b600082198211156150ec576150ec61524f565b500190565b60008261510e57634e487b7160e01b600052601260045260246000fd5b500490565b600181815b8085111561514e5781600019048211156151345761513461524f565b8085161561514157918102915b93841c9390800290615118565b509250929050565b6000614745838360008261516c5750600161141f565b816151795750600061141f565b816001811461518f5760028114615199576151b5565b600191505061141f565b60ff8411156151aa576151aa61524f565b50506001821b61141f565b5060208310610133831016604e8410600b84101617156151d8575081810a61141f565b6151e28383615113565b80600019048211156151f6576151f661524f565b029392505050565b60008160001904831182151516156152185761521861524f565b500290565b60008282101561522f5761522f61524f565b500390565b60006000198214156152485761524861524f565b5060010190565b634e487b7160e01b600052601160045260246000fd5b634e487b7160e01b600052603260045260246000fd5b634e487b7160e01b600052604160045260246000fd5b6001600160a01b03811681146152a657600080fd5b50565b80151581146152a657600080fdfea2646970667358221220d454f289c299e5b530152ea852945f533eb133aaf8ead35c0f2216240d9824e164736f6c63430008070033",
    "sourcePath": "c:/Users/STC/Documents/GitHub/SMART-SITE-CAPITAL/contracts/v3/BinariSystem.sol",
    "compiler": {
        "name": "solc",
        "version": "0.8.7+commit.e28d00a7"
    },
    "functionHashes": {
        "ChangeTokenOTRO(address)": "96ba5363",
        "ChangeTokenPrincipal(address)": "50da983f",
        "ChangeTokenSalida(address)": "6d038a03",
        "MIN_RETIRO()": "6c529279",
        "MIN_RETIRO_interno()": "4bdcd429",
        "active(uint256)": "8033d581",
        "actualizarNetwork(address[])": "1ce7f99b",
        "addPlan(uint256)": "6999c45e",
        "addressToId(address)": "cb0e0d7d",
        "allnetwork(address[])": "7faee047",
        "api()": "d2c18e0b",
        "asignarPlan(address,uint256,address,uint256)": "ebe690bd",
        "asignarPuntosBinarios(address,uint256,uint256)": "5a090c2d",
        "basePorcientos()": "faafa907",
        "buyPlan(uint256)": "a80b223b",
        "buyValue(uint256)": "c8065ede",
        "column(address,uint256)": "15e8392b",
        "controlBinario(bool)": "9d1a5ea1",
        "controlReferidos(bool)": "d8de4064",
        "descuento()": "7b0412ed",
        "dias()": "ab6db199",
        "handLeft(address)": "55465fa5",
        "handRigth(address)": "6a88e297",
        "idToAddress(uint256)": "2a2d0c47",
        "insertionLeft(address[])": "6bf199ff",
        "insertionRigth(address[])": "42ccc234",
        "investors(address)": "6f7bc9be",
        "lastUserId()": "348d4487",
        "maxTime()": "22e67e71",
        "owner()": "8da5cb5b",
        "padre(address)": "b35f0a8f",
        "payValue(uint256)": "67583cf8",
        "personas()": "cc759ba2",
        "personasBinary(address)": "4e929b0f",
        "plans(uint256)": "b1620616",
        "plansLength()": "26837aa8",
        "porcent()": "4728f718",
        "porcentPuntosBinario()": "c2307ee6",
        "porcientoBuy()": "ce51abb7",
        "porcientoPay()": "7e8ff94d",
        "porcientos(uint256)": "28cca719",
        "precioRegistro()": "7db9e9c6",
        "primervez(uint256)": "725fc270",
        "profit(address)": "02550e4d",
        "rate()": "2c4e722e",
        "rate2()": "f555b815",
        "rateSell()": "68b058eb",
        "redimOTRO()": "8929cbc5",
        "redimSITE01()": "78f15671",
        "redimSITE02(uint256)": "b9be8cdc",
        "redimTRX()": "cdb8bb2a",
        "registro(address,uint8)": "c14b8361",
        "setActive(uint256,bool)": "e60a955d",
        "setActiveAll(bool[])": "4dbc9d15",
        "setBase(uint256)": "38e80f68",
        "setDescuentoPorNoTrabajo(uint256,uint256)": "9de8c3cf",
        "setMIN_RETIRO(uint256)": "4de1be62",
        "setMaxTime(uint256)": "98b777e7",
        "setPlans(uint256,uint256)": "9496e6f8",
        "setPlansAll(uint256[])": "4e0e3323",
        "setPorcientos(uint256,uint256)": "1e403c35",
        "setPrimeravezPorcientos(uint256,uint256)": "54822522",
        "setPuntosPorcentajeBinario(uint256)": "64417c89",
        "setRates(uint256,uint256)": "ac6af280",
        "setRetorno(uint256)": "6589fa8a",
        "setTiempo(uint256)": "f90b3f5a",
        "setTiempoUnidades(uint256)": "2748d29b",
        "setWalletApi(address)": "c510c060",
        "setWalletstransfers(address,address,address)": "e506e1c0",
        "setporcientoBuyPay(uint256,uint256)": "edc2fe29",
        "setstate()": "85338e20",
        "sisBinario()": "6657a040",
        "sisReferidos()": "7f658166",
        "tiempo()": "50188c08",
        "tokenPago()": "16a64416",
        "tokenPricipal()": "b1390426",
        "totalInvested()": "5216aeec",
        "totalInvestors()": "29b8caff",
        "totalRefRewards()": "bfe0e020",
        "transfer1()": "343bfdff",
        "transfer2()": "248c44e8",
        "transfer3()": "21adf6a4",
        "transferOwnership(address)": "f2fde38b",
        "unidades()": "4b9b8203",
        "upGradePlan(uint256)": "72c5dd34",
        "wallet1()": "1a026c96",
        "wallet2()": "0b8d0a28",
        "wallet3()": "3c918bae",
        "withdraw()": "3ccfd60b",
        "withdrawToDeposit()": "a00a8c9b",
        "withdrawable(address)": "ce513b6f",
        "withdrawableBinary(address)": "a95b4df9"
    },
    "gasEstimates": {
        "creation": {
            "codeDepositCost": "4245800",
            "executionCost": "infinite",
            "totalCost": "infinite"
        },
        "external": {
            "": "253",
            "ChangeTokenOTRO(address)": "26887",
            "ChangeTokenPrincipal(address)": "51120",
            "ChangeTokenSalida(address)": "51163",
            "MIN_RETIRO()": "2428",
            "MIN_RETIRO_interno()": "2386",
            "active(uint256)": "6370",
            "actualizarNetwork(address[])": "infinite",
            "addPlan(uint256)": "infinite",
            "addressToId(address)": "2646",
            "allnetwork(address[])": "infinite",
            "api()": "2448",
            "asignarPlan(address,uint256,address,uint256)": "infinite",
            "asignarPuntosBinarios(address,uint256,uint256)": "infinite",
            "basePorcientos()": "2471",
            "buyPlan(uint256)": "infinite",
            "buyValue(uint256)": "infinite",
            "column(address,uint256)": "infinite",
            "controlBinario(bool)": "26889",
            "controlReferidos(bool)": "26858",
            "descuento()": "2430",
            "dias()": "2428",
            "handLeft(address)": "9153",
            "handRigth(address)": "9064",
            "idToAddress(uint256)": "2612",
            "insertionLeft(address[])": "infinite",
            "insertionRigth(address[])": "infinite",
            "investors(address)": "46061",
            "lastUserId()": "2363",
            "maxTime()": "2430",
            "owner()": "2405",
            "padre(address)": "2642",
            "payValue(uint256)": "infinite",
            "personas()": "2450",
            "personasBinary(address)": "infinite",
            "plans(uint256)": "4643",
            "plansLength()": "2468",
            "porcent()": "2473",
            "porcentPuntosBinario()": "2362",
            "porcientoBuy()": "2384",
            "porcientoPay()": "2363",
            "porcientos(uint256)": "4666",
            "precioRegistro()": "2452",
            "primervez(uint256)": "4644",
            "profit(address)": "infinite",
            "rate()": "2452",
            "rate2()": "2427",
            "rateSell()": "6713",
            "redimOTRO()": "infinite",
            "redimSITE01()": "infinite",
            "redimSITE02(uint256)": "infinite",
            "redimTRX()": "infinite",
            "registro(address,uint8)": "infinite",
            "setActive(uint256,bool)": "30826",
            "setActiveAll(bool[])": "infinite",
            "setBase(uint256)": "24625",
            "setDescuentoPorNoTrabajo(uint256,uint256)": "infinite",
            "setMIN_RETIRO(uint256)": "24670",
            "setMaxTime(uint256)": "24669",
            "setPlans(uint256,uint256)": "26961",
            "setPlansAll(uint256[])": "infinite",
            "setPorcientos(uint256,uint256)": "infinite",
            "setPrimeravezPorcientos(uint256,uint256)": "infinite",
            "setPuntosPorcentajeBinario(uint256)": "24625",
            "setRates(uint256,uint256)": "48899",
            "setRetorno(uint256)": "24647",
            "setTiempo(uint256)": "24689",
            "setTiempoUnidades(uint256)": "24604",
            "setWalletApi(address)": "26865",
            "setWalletstransfers(address,address,address)": "infinite",
            "setporcientoBuyPay(uint256,uint256)": "46790",
            "setstate()": "6685",
            "sisBinario()": "2455",
            "sisReferidos()": "2400",
            "tiempo()": "infinite",
            "tokenPago()": "2473",
            "tokenPricipal()": "2514",
            "totalInvested()": "2429",
            "totalInvestors()": "2408",
            "totalRefRewards()": "2429",
            "transfer1()": "2506",
            "transfer2()": "2484",
            "transfer3()": "2440",
            "transferOwnership(address)": "30504",
            "unidades()": "2364",
            "upGradePlan(uint256)": "infinite",
            "wallet1()": "2495",
            "wallet2()": "2429",
            "wallet3()": "2449",
            "withdraw()": "infinite",
            "withdrawToDeposit()": "infinite",
            "withdrawable(address)": "infinite",
            "withdrawableBinary(address)": "infinite"
        },
        "internal": {
            "rewardReferers(address,uint256,uint256[] memory)": "infinite"
        }
    }
}