{
    "contractName": "Migracion",
    "abi": [
        {
            "inputs": [
                {
                    "internalType": "address",
                    "name": "_anterior",
                    "type": "address"
                },
                {
                    "internalType": "address",
                    "name": "_token",
                    "type": "address"
                }
            ],
            "stateMutability": "nonpayable",
            "type": "constructor"
        },
        {
            "anonymous": false,
            "inputs": [
                {
                    "indexed": true,
                    "internalType": "address",
                    "name": "previousOwner",
                    "type": "address"
                },
                {
                    "indexed": true,
                    "internalType": "address",
                    "name": "newOwner",
                    "type": "address"
                }
            ],
            "name": "OwnershipTransferred",
            "type": "event"
        },
        {
            "stateMutability": "payable",
            "type": "fallback"
        },
        {
            "inputs": [
                {
                    "internalType": "address",
                    "name": "_tokenTRC20",
                    "type": "address"
                }
            ],
            "name": "ChangeTokenOTRO",
            "outputs": [
                {
                    "internalType": "bool",
                    "name": "",
                    "type": "bool"
                }
            ],
            "stateMutability": "nonpayable",
            "type": "function"
        },
        {
            "inputs": [
                {
                    "internalType": "address",
                    "name": "_tokenTRC20",
                    "type": "address"
                }
            ],
            "name": "ChangeTokenPrincipal",
            "outputs": [
                {
                    "internalType": "bool",
                    "name": "",
                    "type": "bool"
                }
            ],
            "stateMutability": "nonpayable",
            "type": "function"
        },
        {
            "inputs": [
                {
                    "internalType": "address",
                    "name": "_tokenTRC20",
                    "type": "address"
                }
            ],
            "name": "ChangeTokenSalida",
            "outputs": [
                {
                    "internalType": "bool",
                    "name": "",
                    "type": "bool"
                }
            ],
            "stateMutability": "nonpayable",
            "type": "function"
        },
        {
            "inputs": [],
            "name": "MIN_RETIRO",
            "outputs": [
                {
                    "internalType": "uint256",
                    "name": "",
                    "type": "uint256"
                }
            ],
            "stateMutability": "view",
            "type": "function"
        },
        {
            "inputs": [],
            "name": "MIN_RETIRO_interno",
            "outputs": [
                {
                    "internalType": "uint256",
                    "name": "",
                    "type": "uint256"
                }
            ],
            "stateMutability": "view",
            "type": "function"
        },
        {
            "inputs": [],
            "name": "basePorcientos",
            "outputs": [
                {
                    "internalType": "uint256",
                    "name": "",
                    "type": "uint256"
                }
            ],
            "stateMutability": "view",
            "type": "function"
        },
        {
            "inputs": [
                {
                    "internalType": "uint256",
                    "name": "_value",
                    "type": "uint256"
                }
            ],
            "name": "buyValue",
            "outputs": [
                {
                    "internalType": "uint256",
                    "name": "",
                    "type": "uint256"
                }
            ],
            "stateMutability": "view",
            "type": "function"
        },
        {
            "inputs": [],
            "name": "dias",
            "outputs": [
                {
                    "internalType": "uint256",
                    "name": "",
                    "type": "uint256"
                }
            ],
            "stateMutability": "view",
            "type": "function"
        },
        {
            "inputs": [
                {
                    "internalType": "address",
                    "name": "",
                    "type": "address"
                }
            ],
            "name": "investors",
            "outputs": [
                {
                    "internalType": "bool",
                    "name": "registered",
                    "type": "bool"
                },
                {
                    "internalType": "uint256",
                    "name": "invested",
                    "type": "uint256"
                },
                {
                    "internalType": "uint256",
                    "name": "amount",
                    "type": "uint256"
                },
                {
                    "internalType": "uint256",
                    "name": "inicio",
                    "type": "uint256"
                },
                {
                    "internalType": "uint256",
                    "name": "paidAt",
                    "type": "uint256"
                },
                {
                    "internalType": "uint256",
                    "name": "almacen",
                    "type": "uint256"
                },
                {
                    "internalType": "uint256",
                    "name": "withdrawn",
                    "type": "uint256"
                }
            ],
            "stateMutability": "view",
            "type": "function"
        },
        {
            "inputs": [],
            "name": "maxTime",
            "outputs": [
                {
                    "internalType": "uint256",
                    "name": "",
                    "type": "uint256"
                }
            ],
            "stateMutability": "view",
            "type": "function"
        },
        {
            "inputs": [],
            "name": "migrar",
            "outputs": [],
            "stateMutability": "nonpayable",
            "type": "function"
        },
        {
            "inputs": [],
            "name": "owner",
            "outputs": [
                {
                    "internalType": "address payable",
                    "name": "",
                    "type": "address"
                }
            ],
            "stateMutability": "view",
            "type": "function"
        },
        {
            "inputs": [
                {
                    "internalType": "uint256",
                    "name": "_value",
                    "type": "uint256"
                }
            ],
            "name": "payValue",
            "outputs": [
                {
                    "internalType": "uint256",
                    "name": "",
                    "type": "uint256"
                }
            ],
            "stateMutability": "view",
            "type": "function"
        },
        {
            "inputs": [],
            "name": "porcent",
            "outputs": [
                {
                    "internalType": "uint256",
                    "name": "",
                    "type": "uint256"
                }
            ],
            "stateMutability": "view",
            "type": "function"
        },
        {
            "inputs": [],
            "name": "porcientoBuy",
            "outputs": [
                {
                    "internalType": "uint256",
                    "name": "",
                    "type": "uint256"
                }
            ],
            "stateMutability": "view",
            "type": "function"
        },
        {
            "inputs": [],
            "name": "porcientoPay",
            "outputs": [
                {
                    "internalType": "uint256",
                    "name": "",
                    "type": "uint256"
                }
            ],
            "stateMutability": "view",
            "type": "function"
        },
        {
            "inputs": [],
            "name": "rate",
            "outputs": [
                {
                    "internalType": "uint256",
                    "name": "",
                    "type": "uint256"
                }
            ],
            "stateMutability": "view",
            "type": "function"
        },
        {
            "inputs": [],
            "name": "rate2",
            "outputs": [
                {
                    "internalType": "uint256",
                    "name": "",
                    "type": "uint256"
                }
            ],
            "stateMutability": "view",
            "type": "function"
        },
        {
            "inputs": [],
            "name": "redimOTRO",
            "outputs": [
                {
                    "internalType": "uint256",
                    "name": "",
                    "type": "uint256"
                }
            ],
            "stateMutability": "nonpayable",
            "type": "function"
        },
        {
            "inputs": [],
            "name": "redimSITE01",
            "outputs": [
                {
                    "internalType": "uint256",
                    "name": "",
                    "type": "uint256"
                }
            ],
            "stateMutability": "nonpayable",
            "type": "function"
        },
        {
            "inputs": [
                {
                    "internalType": "uint256",
                    "name": "_value",
                    "type": "uint256"
                }
            ],
            "name": "redimSITE02",
            "outputs": [
                {
                    "internalType": "uint256",
                    "name": "",
                    "type": "uint256"
                }
            ],
            "stateMutability": "nonpayable",
            "type": "function"
        },
        {
            "inputs": [],
            "name": "redimTRX",
            "outputs": [
                {
                    "internalType": "uint256",
                    "name": "",
                    "type": "uint256"
                }
            ],
            "stateMutability": "nonpayable",
            "type": "function"
        },
        {
            "inputs": [
                {
                    "internalType": "uint256",
                    "name": "_base100",
                    "type": "uint256"
                }
            ],
            "name": "setBase",
            "outputs": [
                {
                    "internalType": "uint256",
                    "name": "",
                    "type": "uint256"
                }
            ],
            "stateMutability": "nonpayable",
            "type": "function"
        },
        {
            "inputs": [
                {
                    "internalType": "uint256",
                    "name": "_min",
                    "type": "uint256"
                }
            ],
            "name": "setMIN_RETIRO",
            "outputs": [
                {
                    "internalType": "uint256",
                    "name": "",
                    "type": "uint256"
                }
            ],
            "stateMutability": "nonpayable",
            "type": "function"
        },
        {
            "inputs": [
                {
                    "internalType": "uint256",
                    "name": "_porcentajemaximoParahacerUpgrade",
                    "type": "uint256"
                }
            ],
            "name": "setMaxTime",
            "outputs": [
                {
                    "internalType": "uint256",
                    "name": "",
                    "type": "uint256"
                }
            ],
            "stateMutability": "nonpayable",
            "type": "function"
        },
        {
            "inputs": [
                {
                    "internalType": "uint256",
                    "name": "_rateBuy",
                    "type": "uint256"
                },
                {
                    "internalType": "uint256",
                    "name": "_rateSell",
                    "type": "uint256"
                }
            ],
            "name": "setRates",
            "outputs": [],
            "stateMutability": "nonpayable",
            "type": "function"
        },
        {
            "inputs": [
                {
                    "internalType": "uint256",
                    "name": "_porcentaje",
                    "type": "uint256"
                }
            ],
            "name": "setRetorno",
            "outputs": [
                {
                    "internalType": "uint256",
                    "name": "",
                    "type": "uint256"
                }
            ],
            "stateMutability": "nonpayable",
            "type": "function"
        },
        {
            "inputs": [
                {
                    "internalType": "uint256",
                    "name": "_dias",
                    "type": "uint256"
                }
            ],
            "name": "setTiempo",
            "outputs": [
                {
                    "internalType": "uint256",
                    "name": "",
                    "type": "uint256"
                }
            ],
            "stateMutability": "nonpayable",
            "type": "function"
        },
        {
            "inputs": [
                {
                    "internalType": "uint256",
                    "name": "_unidades",
                    "type": "uint256"
                }
            ],
            "name": "setTiempoUnidades",
            "outputs": [
                {
                    "internalType": "uint256",
                    "name": "",
                    "type": "uint256"
                }
            ],
            "stateMutability": "nonpayable",
            "type": "function"
        },
        {
            "inputs": [
                {
                    "internalType": "uint256",
                    "name": "_buy",
                    "type": "uint256"
                },
                {
                    "internalType": "uint256",
                    "name": "_pay",
                    "type": "uint256"
                }
            ],
            "name": "setporcientoBuyPay",
            "outputs": [
                {
                    "internalType": "uint256",
                    "name": "",
                    "type": "uint256"
                },
                {
                    "internalType": "uint256",
                    "name": "",
                    "type": "uint256"
                }
            ],
            "stateMutability": "nonpayable",
            "type": "function"
        },
        {
            "inputs": [],
            "name": "setstate",
            "outputs": [
                {
                    "internalType": "uint256",
                    "name": "migrados",
                    "type": "uint256"
                }
            ],
            "stateMutability": "view",
            "type": "function"
        },
        {
            "inputs": [],
            "name": "tiempo",
            "outputs": [
                {
                    "internalType": "uint256",
                    "name": "",
                    "type": "uint256"
                }
            ],
            "stateMutability": "view",
            "type": "function"
        },
        {
            "inputs": [],
            "name": "tokenPago",
            "outputs": [
                {
                    "internalType": "address",
                    "name": "",
                    "type": "address"
                }
            ],
            "stateMutability": "view",
            "type": "function"
        },
        {
            "inputs": [],
            "name": "tokenPricipal",
            "outputs": [
                {
                    "internalType": "address",
                    "name": "",
                    "type": "address"
                }
            ],
            "stateMutability": "view",
            "type": "function"
        },
        {
            "inputs": [],
            "name": "totalMigrados",
            "outputs": [
                {
                    "internalType": "uint256",
                    "name": "",
                    "type": "uint256"
                }
            ],
            "stateMutability": "view",
            "type": "function"
        },
        {
            "inputs": [
                {
                    "internalType": "address payable",
                    "name": "newOwner",
                    "type": "address"
                }
            ],
            "name": "transferOwnership",
            "outputs": [],
            "stateMutability": "nonpayable",
            "type": "function"
        },
        {
            "inputs": [],
            "name": "unidades",
            "outputs": [
                {
                    "internalType": "uint256",
                    "name": "",
                    "type": "uint256"
                }
            ],
            "stateMutability": "view",
            "type": "function"
        },
        {
            "inputs": [],
            "name": "withdraw",
            "outputs": [],
            "stateMutability": "nonpayable",
            "type": "function"
        },
        {
            "inputs": [
                {
                    "internalType": "address",
                    "name": "any_user",
                    "type": "address"
                }
            ],
            "name": "withdrawable",
            "outputs": [
                {
                    "internalType": "uint256",
                    "name": "amount",
                    "type": "uint256"
                }
            ],
            "stateMutability": "view",
            "type": "function"
        },
        {
            "stateMutability": "payable",
            "type": "receive"
        }
    ],
    "bytecode": "60806040526305f5e100600555621a3ec06009556402540be400600a556064600b556064600c556103e8600d556001600e5562015180600f55605a60105560c860115534801561004e57600080fd5b50604051620018583803806200185883398101604081905261006f916100eb565b60008054336001600160a01b0319918216811783556004805483166001600160a01b03968716179055600180548316949095169384178555600280549092169093179055908152601360205260409020805460ff1916909117905561011e565b80516001600160a01b03811681146100e657600080fd5b919050565b600080604083850312156100fe57600080fd5b610107836100cf565b9150610115602084016100cf565b90509250929050565b61172a806200012e6000396000f3fe60806040526004361061021c5760003560e01c806378f1567111610122578063b9be8cdc116100a5578063edc2fe291161006c578063edc2fe2914610662578063f2fde38b14610697578063f555b815146106b7578063f90b3f5a146106cd578063faafa907146106ed57005b8063b9be8cdc146105d7578063c8065ede146105f7578063cdb8bb2a14610617578063ce513b6f1461062c578063ce51abb71461064c57005b806396ba5363116100e957806396ba53631461054157806398b777e714610561578063ab6db19914610581578063ac6af28014610597578063b1390426146105b757005b806378f15671146104cc5780637e8ff94d146104e157806385338e20146104f75780638929cbc51461050c5780638da5cb5b1461052157005b80634bdcd429116101aa57806367583cf81161017157806367583cf8146103ce5780636a7d3337146103ee5780636c529279146104035780636d038a03146104195780636f7bc9be1461043957005b80634bdcd429146103335780634de1be621461034957806350188c081461036957806350da983f1461037e5780636589fa8a146103ae57005b80632c4e722e116101ee5780632c4e722e146102bc57806338e80f68146102d25780633ccfd60b146102f25780634728f718146103075780634b9b82031461031d57005b80630476b19a1461022557806316a644161461024e57806322e67e71146102865780632748d29b1461029c57005b3661022357005b005b34801561023157600080fd5b5061023b60125481565b6040519081526020015b60405180910390f35b34801561025a57600080fd5b5060085461026e906001600160a01b031681565b6040516001600160a01b039091168152602001610245565b34801561029257600080fd5b5061023b60105481565b3480156102a857600080fd5b5061023b6102b7366004611437565b610703565b3480156102c857600080fd5b5061023b60095481565b3480156102de57600080fd5b5061023b6102ed366004611437565b610728565b3480156102fe57600080fd5b50610223610749565b34801561031357600080fd5b5061023b60115481565b34801561032957600080fd5b5061023b600f5481565b34801561033f57600080fd5b5061023b60065481565b34801561035557600080fd5b5061023b610364366004611437565b6109cd565b34801561037557600080fd5b5061023b6109ee565b34801561038a57600080fd5b5061039e610399366004611465565b610a0c565b6040519015158152602001610245565b3480156103ba57600080fd5b5061023b6103c9366004611437565b610a52565b3480156103da57600080fd5b5061023b6103e9366004611437565b610a73565b3480156103fa57600080fd5b50610223610b33565b34801561040f57600080fd5b5061023b60055481565b34801561042557600080fd5b5061039e610434366004611465565b610d1b565b34801561044557600080fd5b50610495610454366004611465565b601360205260009081526040902080546001820154600283015460038401546004850154600586015460069096015460ff9095169593949293919290919087565b6040805197151588526020880196909652948601939093526060850191909152608084015260a083015260c082015260e001610245565b3480156104d857600080fd5b5061023b610d66565b3480156104ed57600080fd5b5061023b600c5481565b34801561050357600080fd5b5060125461023b565b34801561051857600080fd5b5061023b610e8b565b34801561052d57600080fd5b5060005461026e906001600160a01b031681565b34801561054d57600080fd5b5061039e61055c366004611465565b610f5c565b34801561056d57600080fd5b5061023b61057c366004611437565b610f99565b34801561058d57600080fd5b5061023b600e5481565b3480156105a357600080fd5b506102236105b2366004611482565b610fba565b3480156105c357600080fd5b5060075461026e906001600160a01b031681565b3480156105e357600080fd5b5061023b6105f2366004611437565b611018565b34801561060357600080fd5b5061023b610612366004611437565b611188565b34801561062357600080fd5b5061023b6111ec565b34801561063857600080fd5b5061023b610647366004611465565b611245565b34801561065857600080fd5b5061023b600b5481565b34801561066e57600080fd5b5061068261067d366004611482565b61130c565b60408051928352602083019190915201610245565b3480156106a357600080fd5b506102236106b2366004611465565b611336565b3480156106c357600080fd5b5061023b600a5481565b3480156106d957600080fd5b5061023b6106e8366004611437565b6113bb565b3480156106f957600080fd5b5061023b600d5481565b600080546001600160a01b0316331461071b57600080fd5b50600f819055805b919050565b600080546001600160a01b0316331461074057600080fd5b50600d81905590565b3360008181526013602052604081209161076290611245565b90506107778260050154826103e991906114ba565b6002546040516370a0823160e01b81523060048201526001600160a01b03909116906370a082319060240160206040518083038186803b1580156107ba57600080fd5b505afa1580156107ce573d6000803e3d6000fd5b505050506040513d601f19601f820116820180604052508101906107f291906114d2565b10156108455760405162461bcd60e51b815260206004820152601b60248201527f54686520636f6e747261637420686173206e6f2062616c616e6365000000000060448201526064015b60405180910390fd5b6005548110156108a35760405162461bcd60e51b8152602060048201526024808201527f546865206d696e696d756d207769746864726177616c206c696d69742072656160448201526318da195960e21b606482015260840161083c565b60025460058301546001600160a01b039091169063a9059cbb9033906108cd906103e990866114ba565b6040516001600160e01b031960e085901b1681526001600160a01b0390921660048301526024820152604401602060405180830381600087803b15801561091357600080fd5b505af1158015610927573d6000803e3d6000fd5b505050506040513d601f19601f8201168201806040525081019061094b91906114fb565b6109885760405162461bcd60e51b815260206004820152600e60248201526d1dda1a5d191c985ddb0811985a5b60921b604482015260640161083c565b8082600201600082825461099c9190611516565b92505081905550808260060160008282546109b791906114ba565b9091555050426004830155506000600590910155565b600080546001600160a01b031633146109e557600080fd5b50600581905590565b6000610a07600f54600e546113dc90919063ffffffff16565b905090565b600080546001600160a01b03163314610a2457600080fd5b50600180546001600160a01b0383166001600160a01b03199182168117835560078054909216179055919050565b600080546001600160a01b03163314610a6a57600080fd5b50601181905590565b6000610b2d6064610b21600c54610b27600a54610b21600260009054906101000a90046001600160a01b03166001600160a01b031663313ce5676040518163ffffffff1660e01b815260040160206040518083038186803b158015610ad757600080fd5b505afa158015610aeb573d6000803e3d6000fd5b505050506040513d601f19601f82011682018060405250810190610b0f91906114d2565b610b1a90600a611611565b89906113dc565b90611415565b906113dc565b92915050565b336000908152601360205260409020805460ff16610d1357600480546040516337bde4df60e11b81523392810192909252600091829182918291829182918291829182918291829182916001600160a01b031690636f7bc9be906024016101806040518083038186803b158015610ba957600080fd5b505afa158015610bbd573d6000803e3d6000fd5b505050506040513d601f19601f82011682018060405250810190610be1919061161d565b9b509b509b509b509b509b509b509b509b509b509b509b508b8015610c0357508a5b8015610c10575060018a10155b8015610c1a575060015b8015610c24575060015b8015610c2e575060015b8015610c38575060015b8015610c42575060015b8015610c4c575060015b15610d0457610c5a84611188565b60018e0155610c6887611188565b60028e015560038d018590556004808e01849055805460405163ce513b6f60e01b81523392810192909252610cfe916001600160a01b039091169063ce513b6f90602401602060405180830381600087803b158015610cc657600080fd5b505af1158015610cda573d6000803e3d6000fd5b505050506040513d601f19601f8201168201806040525081019061061291906114d2565b60058e01555b50505050505050505050505050565b600080fd5b50565b600080546001600160a01b03163314610d3357600080fd5b50600280546001600160a01b0383166001600160a01b031991821681179092556008805490911690911790556001919050565b600080546001600160a01b03163314610d7e57600080fd5b6001546040516370a0823160e01b81523060048201526000916001600160a01b0316906370a082319060240160206040518083038186803b158015610dc257600080fd5b505afa158015610dd6573d6000803e3d6000fd5b505050506040513d601f19601f82011682018060405250810190610dfa91906114d2565b60015460005460405163a9059cbb60e01b81526001600160a01b03918216600482015260248101849052929350169063a9059cbb906044015b602060405180830381600087803b158015610e4d57600080fd5b505af1158015610e61573d6000803e3d6000fd5b505050506040513d601f19601f82011682018060405250810190610e8591906114fb565b50905090565b600080546001600160a01b03163314610ea357600080fd5b6003546040516370a0823160e01b81523060048201526000916001600160a01b0316906370a082319060240160206040518083038186803b158015610ee757600080fd5b505afa158015610efb573d6000803e3d6000fd5b505050506040513d601f19601f82011682018060405250810190610f1f91906114d2565b60035460005460405163a9059cbb60e01b81526001600160a01b03918216600482015260248101849052929350169063a9059cbb90604401610e33565b600080546001600160a01b03163314610f7457600080fd5b50600380546001600160a01b0383166001600160a01b03199091161790556001919050565b600080546001600160a01b03163314610fb157600080fd5b50601081905590565b6000546001600160a01b0316331461100d5760405162461bcd60e51b81526020600482015260166024820152752737903a34b2b732b99030baba37b934bd30b1b4b7b760511b604482015260640161083c565b600991909155600a55565b600080546001600160a01b0316331461103057600080fd5b6001546040516370a0823160e01b815230600482015283916001600160a01b0316906370a082319060240160206040518083038186803b15801561107357600080fd5b505afa158015611087573d6000803e3d6000fd5b505050506040513d601f19601f820116820180604052508101906110ab91906114d2565b10156110f95760405162461bcd60e51b815260206004820152601b60248201527f54686520636f6e747261637420686173206e6f2062616c616e63650000000000604482015260640161083c565b60015460005460405163a9059cbb60e01b81526001600160a01b0391821660048201526024810185905291169063a9059cbb90604401602060405180830381600087803b15801561114957600080fd5b505af115801561115d573d6000803e3d6000fd5b505050506040513d601f19601f8201168201806040525081019061118191906114fb565b5090919050565b6000610b2d6064610b21600b54610b27600954610b21600160009054906101000a90046001600160a01b03166001600160a01b031663313ce5676040518163ffffffff1660e01b815260040160206040518083038186803b158015610ad757600080fd5b600080546001600160a01b0316331461120457600080fd5b600080546040516001600160a01b03909116914780156108fc02929091818181858888f1935050505015801561123e573d6000803e3d6000fd5b5047905090565b6001600160a01b0381166000908152601360205260408120816112666109ee565b826003015461127591906114ba565b905060008260030154836004015411611292578260030154611298565b82600401545b905060008242116112a957426112ab565b825b9050808210156112f1576112bd6109ee565b6112c78383611516565b85600201546112d691906116b3565b6112e091906116d2565b6112ea90866114ba565b9450611303565b600284015461130090866114ba565b94505b50505050919050565b6000805481906001600160a01b0316331461132657600080fd5b5050600b829055600c8190559091565b6000546001600160a01b0316331461134d57600080fd5b6001600160a01b03811661136057600080fd5b600080546040516001600160a01b03808516939216917f8be0079c531659141344cd1fd0a4f28419497f9722a3daafe3b4186f6b6457e091a3600080546001600160a01b0319166001600160a01b0392909216919091179055565b600080546001600160a01b031633146113d357600080fd5b50600e81905590565b6000826113eb57506000610b2d565b60006113f783856116b3565b90508261140485836116d2565b1461140e57600080fd5b9392505050565b600080821161142357600080fd5b600061142f83856116d2565b949350505050565b60006020828403121561144957600080fd5b5035919050565b6001600160a01b0381168114610d1857600080fd5b60006020828403121561147757600080fd5b813561140e81611450565b6000806040838503121561149557600080fd5b50508035926020909101359150565b634e487b7160e01b600052601160045260246000fd5b600082198211156114cd576114cd6114a4565b500190565b6000602082840312156114e457600080fd5b5051919050565b8051801515811461072357600080fd5b60006020828403121561150d57600080fd5b61140e826114eb565b600082821015611528576115286114a4565b500390565b600181815b8085111561156857816000190482111561154e5761154e6114a4565b8085161561155b57918102915b93841c9390800290611532565b509250929050565b60008261157f57506001610b2d565b8161158c57506000610b2d565b81600181146115a257600281146115ac576115c8565b6001915050610b2d565b60ff8411156115bd576115bd6114a4565b50506001821b610b2d565b5060208310610133831016604e8410600b84101617156115eb575081810a610b2d565b6115f5838361152d565b8060001904821115611609576116096114a4565b029392505050565b600061140e8383611570565b6000806000806000806000806000806000806101808d8f03121561164057600080fd5b6116498d6114eb565b9b5061165760208e016114eb565b9a5060408d0151995060608d0151985060808d0151975060a08d0151965060c08d0151955060e08d015194506101008d015193506101208d015192506101408d015191506101608d015190509295989b509295989b509295989b565b60008160001904831182151516156116cd576116cd6114a4565b500290565b6000826116ef57634e487b7160e01b600052601260045260246000fd5b50049056fea2646970667358221220234ef5ea1ffe00fed172c628d84f7c9f6e401b1511d6438b4891c575ce596e2464736f6c63430008080033",
    "sourcePath": "c:/Users/STC/Documents/GitHub/SMART-SITE-CAPITAL/contracts/v2 - migracion/Migracion.sol",
    "compiler": {
        "name": "solc",
        "version": "0.8.8+commit.dddeac2f"
    },
    "functionHashes": {
        "ChangeTokenOTRO(address)": "96ba5363",
        "ChangeTokenPrincipal(address)": "50da983f",
        "ChangeTokenSalida(address)": "6d038a03",
        "MIN_RETIRO()": "6c529279",
        "MIN_RETIRO_interno()": "4bdcd429",
        "basePorcientos()": "faafa907",
        "buyValue(uint256)": "c8065ede",
        "dias()": "ab6db199",
        "investors(address)": "6f7bc9be",
        "maxTime()": "22e67e71",
        "migrar()": "6a7d3337",
        "owner()": "8da5cb5b",
        "payValue(uint256)": "67583cf8",
        "porcent()": "4728f718",
        "porcientoBuy()": "ce51abb7",
        "porcientoPay()": "7e8ff94d",
        "rate()": "2c4e722e",
        "rate2()": "f555b815",
        "redimOTRO()": "8929cbc5",
        "redimSITE01()": "78f15671",
        "redimSITE02(uint256)": "b9be8cdc",
        "redimTRX()": "cdb8bb2a",
        "setBase(uint256)": "38e80f68",
        "setMIN_RETIRO(uint256)": "4de1be62",
        "setMaxTime(uint256)": "98b777e7",
        "setRates(uint256,uint256)": "ac6af280",
        "setRetorno(uint256)": "6589fa8a",
        "setTiempo(uint256)": "f90b3f5a",
        "setTiempoUnidades(uint256)": "2748d29b",
        "setporcientoBuyPay(uint256,uint256)": "edc2fe29",
        "setstate()": "85338e20",
        "tiempo()": "50188c08",
        "tokenPago()": "16a64416",
        "tokenPricipal()": "b1390426",
        "totalMigrados()": "0476b19a",
        "transferOwnership(address)": "f2fde38b",
        "unidades()": "4b9b8203",
        "withdraw()": "3ccfd60b",
        "withdrawable(address)": "ce513b6f"
    },
    "gasEstimates": {
        "creation": {
            "codeDepositCost": "1186000",
            "executionCost": "infinite",
            "totalCost": "infinite"
        },
        "external": {
            "": "208",
            "ChangeTokenOTRO(address)": "26820",
            "ChangeTokenPrincipal(address)": "51108",
            "ChangeTokenSalida(address)": "51119",
            "MIN_RETIRO()": "2373",
            "MIN_RETIRO_interno()": "2330",
            "basePorcientos()": "2416",
            "buyValue(uint256)": "infinite",
            "dias()": "2373",
            "investors(address)": "15474",
            "maxTime()": "2375",
            "migrar()": "infinite",
            "owner()": "2471",
            "payValue(uint256)": "infinite",
            "porcent()": "2396",
            "porcientoBuy()": "2417",
            "porcientoPay()": "2352",
            "rate()": "2330",
            "rate2()": "2372",
            "redimOTRO()": "infinite",
            "redimSITE01()": "infinite",
            "redimSITE02(uint256)": "infinite",
            "redimTRX()": "infinite",
            "setBase(uint256)": "24592",
            "setMIN_RETIRO(uint256)": "24592",
            "setMaxTime(uint256)": "24591",
            "setRates(uint256,uint256)": "46710",
            "setRetorno(uint256)": "24658",
            "setTiempo(uint256)": "24634",
            "setTiempoUnidades(uint256)": "24646",
            "setporcientoBuyPay(uint256,uint256)": "46746",
            "setstate()": "2371",
            "tiempo()": "infinite",
            "tokenPago()": "2406",
            "tokenPricipal()": "2470",
            "totalMigrados()": "2331",
            "transferOwnership(address)": "30460",
            "unidades()": "2418",
            "withdraw()": "infinite",
            "withdrawable(address)": "infinite"
        }
    }
}