{
    "contractName": "SITECapital",
    "abi": [
        {
            "inputs": [
                {
                    "internalType": "address",
                    "name": "_tokenTRC20",
                    "type": "address"
                }
            ],
            "stateMutability": "nonpayable",
            "type": "constructor"
        },
        {
            "stateMutability": "payable",
            "type": "fallback"
        },
        {
            "inputs": [
                {
                    "internalType": "address",
                    "name": "_tokenTRC20",
                    "type": "address"
                }
            ],
            "name": "ChangeTokenUSDT",
            "outputs": [
                {
                    "internalType": "bool",
                    "name": "",
                    "type": "bool"
                }
            ],
            "stateMutability": "nonpayable",
            "type": "function"
        },
        {
            "inputs": [
                {
                    "internalType": "address",
                    "name": "_token",
                    "type": "address"
                }
            ],
            "name": "InContractOTRO",
            "outputs": [
                {
                    "internalType": "uint256",
                    "name": "",
                    "type": "uint256"
                }
            ],
            "stateMutability": "view",
            "type": "function"
        },
        {
            "inputs": [],
            "name": "InContractSITE",
            "outputs": [
                {
                    "internalType": "uint256",
                    "name": "",
                    "type": "uint256"
                }
            ],
            "stateMutability": "view",
            "type": "function"
        },
        {
            "inputs": [],
            "name": "InContractTRX",
            "outputs": [
                {
                    "internalType": "uint256",
                    "name": "",
                    "type": "uint256"
                }
            ],
            "stateMutability": "view",
            "type": "function"
        },
        {
            "inputs": [],
            "name": "MAX_DEPOSIT",
            "outputs": [
                {
                    "internalType": "uint256",
                    "name": "",
                    "type": "uint256"
                }
            ],
            "stateMutability": "view",
            "type": "function"
        },
        {
            "inputs": [],
            "name": "MAX_RETIRO",
            "outputs": [
                {
                    "internalType": "uint256",
                    "name": "",
                    "type": "uint256"
                }
            ],
            "stateMutability": "view",
            "type": "function"
        },
        {
            "inputs": [],
            "name": "MIN_DEPOSIT",
            "outputs": [
                {
                    "internalType": "uint256",
                    "name": "",
                    "type": "uint256"
                }
            ],
            "stateMutability": "view",
            "type": "function"
        },
        {
            "inputs": [],
            "name": "MIN_RETIRO",
            "outputs": [
                {
                    "internalType": "uint256",
                    "name": "",
                    "type": "uint256"
                }
            ],
            "stateMutability": "view",
            "type": "function"
        },
        {
            "inputs": [],
            "name": "TOKEN",
            "outputs": [
                {
                    "internalType": "address",
                    "name": "",
                    "type": "address"
                }
            ],
            "stateMutability": "view",
            "type": "function"
        },
        {
            "inputs": [],
            "name": "basePorcientos",
            "outputs": [
                {
                    "internalType": "uint256",
                    "name": "",
                    "type": "uint256"
                }
            ],
            "stateMutability": "view",
            "type": "function"
        },
        {
            "inputs": [
                {
                    "internalType": "address",
                    "name": "_from",
                    "type": "address"
                },
                {
                    "internalType": "uint256",
                    "name": "_lengt",
                    "type": "uint256"
                }
            ],
            "name": "column",
            "outputs": [
                {
                    "internalType": "address[]",
                    "name": "res",
                    "type": "address[]"
                }
            ],
            "stateMutability": "view",
            "type": "function"
        },
        {
            "inputs": [
                {
                    "internalType": "bool",
                    "name": "_true_false",
                    "type": "bool"
                }
            ],
            "name": "controlReferidos",
            "outputs": [
                {
                    "internalType": "bool",
                    "name": "",
                    "type": "bool"
                }
            ],
            "stateMutability": "nonpayable",
            "type": "function"
        },
        {
            "inputs": [
                {
                    "internalType": "uint256",
                    "name": "_value",
                    "type": "uint256"
                },
                {
                    "internalType": "address",
                    "name": "_sponsor",
                    "type": "address"
                }
            ],
            "name": "deposit",
            "outputs": [],
            "stateMutability": "nonpayable",
            "type": "function"
        },
        {
            "inputs": [
                {
                    "internalType": "address",
                    "name": "",
                    "type": "address"
                },
                {
                    "internalType": "uint256",
                    "name": "",
                    "type": "uint256"
                }
            ],
            "name": "deposits",
            "outputs": [
                {
                    "internalType": "uint256",
                    "name": "porciento",
                    "type": "uint256"
                },
                {
                    "internalType": "uint256",
                    "name": "tiempo",
                    "type": "uint256"
                },
                {
                    "internalType": "uint256",
                    "name": "amount",
                    "type": "uint256"
                },
                {
                    "internalType": "uint256",
                    "name": "at",
                    "type": "uint256"
                }
            ],
            "stateMutability": "view",
            "type": "function"
        },
        {
            "inputs": [],
            "name": "dias",
            "outputs": [
                {
                    "internalType": "uint256",
                    "name": "",
                    "type": "uint256"
                }
            ],
            "stateMutability": "view",
            "type": "function"
        },
        {
            "inputs": [
                {
                    "internalType": "address",
                    "name": "",
                    "type": "address"
                }
            ],
            "name": "investors",
            "outputs": [
                {
                    "internalType": "bool",
                    "name": "registered",
                    "type": "bool"
                },
                {
                    "internalType": "address",
                    "name": "sponsor",
                    "type": "address"
                },
                {
                    "internalType": "uint256",
                    "name": "balanceRef",
                    "type": "uint256"
                },
                {
                    "internalType": "uint256",
                    "name": "totalRef",
                    "type": "uint256"
                },
                {
                    "internalType": "uint256",
                    "name": "invested",
                    "type": "uint256"
                },
                {
                    "internalType": "uint256",
                    "name": "paidAt",
                    "type": "uint256"
                },
                {
                    "internalType": "uint256",
                    "name": "withdrawn",
                    "type": "uint256"
                }
            ],
            "stateMutability": "view",
            "type": "function"
        },
        {
            "inputs": [],
            "name": "owner",
            "outputs": [
                {
                    "internalType": "address",
                    "name": "",
                    "type": "address"
                }
            ],
            "stateMutability": "view",
            "type": "function"
        },
        {
            "inputs": [],
            "name": "porcent",
            "outputs": [
                {
                    "internalType": "uint256",
                    "name": "",
                    "type": "uint256"
                }
            ],
            "stateMutability": "view",
            "type": "function"
        },
        {
            "inputs": [
                {
                    "internalType": "uint256",
                    "name": "",
                    "type": "uint256"
                }
            ],
            "name": "porcientos",
            "outputs": [
                {
                    "internalType": "uint256",
                    "name": "",
                    "type": "uint256"
                }
            ],
            "stateMutability": "view",
            "type": "function"
        },
        {
            "inputs": [
                {
                    "internalType": "uint256",
                    "name": "",
                    "type": "uint256"
                }
            ],
            "name": "primervez",
            "outputs": [
                {
                    "internalType": "uint256",
                    "name": "",
                    "type": "uint256"
                }
            ],
            "stateMutability": "view",
            "type": "function"
        },
        {
            "inputs": [
                {
                    "internalType": "address",
                    "name": "_token",
                    "type": "address"
                }
            ],
            "name": "redimOTRO01",
            "outputs": [],
            "stateMutability": "nonpayable",
            "type": "function"
        },
        {
            "inputs": [
                {
                    "internalType": "uint256",
                    "name": "_value",
                    "type": "uint256"
                },
                {
                    "internalType": "address",
                    "name": "_token",
                    "type": "address"
                }
            ],
            "name": "redimOTRO02",
            "outputs": [
                {
                    "internalType": "uint256",
                    "name": "",
                    "type": "uint256"
                }
            ],
            "stateMutability": "nonpayable",
            "type": "function"
        },
        {
            "inputs": [],
            "name": "redimSITE01",
            "outputs": [],
            "stateMutability": "nonpayable",
            "type": "function"
        },
        {
            "inputs": [
                {
                    "internalType": "uint256",
                    "name": "_value",
                    "type": "uint256"
                }
            ],
            "name": "redimSITE02",
            "outputs": [
                {
                    "internalType": "uint256",
                    "name": "",
                    "type": "uint256"
                }
            ],
            "stateMutability": "nonpayable",
            "type": "function"
        },
        {
            "inputs": [
                {
                    "internalType": "uint256",
                    "name": "_100",
                    "type": "uint256"
                }
            ],
            "name": "setBase",
            "outputs": [
                {
                    "internalType": "uint256",
                    "name": "",
                    "type": "uint256"
                }
            ],
            "stateMutability": "nonpayable",
            "type": "function"
        },
        {
            "inputs": [
                {
                    "internalType": "uint256",
                    "name": "_MIN_DEPOSIT",
                    "type": "uint256"
                },
                {
                    "internalType": "uint256",
                    "name": "_MAX_DEPOSIT",
                    "type": "uint256"
                },
                {
                    "internalType": "uint256",
                    "name": "_MIN_RETIRO",
                    "type": "uint256"
                },
                {
                    "internalType": "uint256",
                    "name": "_MAX_RETIRO",
                    "type": "uint256"
                }
            ],
            "name": "setMinimoMaximos",
            "outputs": [],
            "stateMutability": "nonpayable",
            "type": "function"
        },
        {
            "inputs": [
                {
                    "internalType": "uint256[]",
                    "name": "_values",
                    "type": "uint256[]"
                }
            ],
            "name": "setPorcientos",
            "outputs": [],
            "stateMutability": "nonpayable",
            "type": "function"
        },
        {
            "inputs": [
                {
                    "internalType": "uint256[]",
                    "name": "_values",
                    "type": "uint256[]"
                }
            ],
            "name": "setPrimeravezPorcientos",
            "outputs": [],
            "stateMutability": "nonpayable",
            "type": "function"
        },
        {
            "inputs": [
                {
                    "internalType": "uint256",
                    "name": "_porcentaje",
                    "type": "uint256"
                }
            ],
            "name": "setRetorno",
            "outputs": [
                {
                    "internalType": "uint256",
                    "name": "",
                    "type": "uint256"
                }
            ],
            "stateMutability": "nonpayable",
            "type": "function"
        },
        {
            "inputs": [
                {
                    "internalType": "uint256",
                    "name": "_dias",
                    "type": "uint256"
                }
            ],
            "name": "setTiempo",
            "outputs": [
                {
                    "internalType": "uint256",
                    "name": "",
                    "type": "uint256"
                }
            ],
            "stateMutability": "nonpayable",
            "type": "function"
        },
        {
            "inputs": [],
            "name": "setstate",
            "outputs": [
                {
                    "internalType": "uint256",
                    "name": "Investors",
                    "type": "uint256"
                },
                {
                    "internalType": "uint256",
                    "name": "Invested",
                    "type": "uint256"
                },
                {
                    "internalType": "uint256",
                    "name": "RefRewards",
                    "type": "uint256"
                }
            ],
            "stateMutability": "view",
            "type": "function"
        },
        {
            "inputs": [],
            "name": "sisReferidos",
            "outputs": [
                {
                    "internalType": "bool",
                    "name": "",
                    "type": "bool"
                }
            ],
            "stateMutability": "view",
            "type": "function"
        },
        {
            "inputs": [],
            "name": "tiempo",
            "outputs": [
                {
                    "internalType": "uint256",
                    "name": "",
                    "type": "uint256"
                }
            ],
            "stateMutability": "view",
            "type": "function"
        },
        {
            "inputs": [],
            "name": "totalInvested",
            "outputs": [
                {
                    "internalType": "uint256",
                    "name": "",
                    "type": "uint256"
                }
            ],
            "stateMutability": "view",
            "type": "function"
        },
        {
            "inputs": [],
            "name": "totalInvestors",
            "outputs": [
                {
                    "internalType": "uint256",
                    "name": "",
                    "type": "uint256"
                }
            ],
            "stateMutability": "view",
            "type": "function"
        },
        {
            "inputs": [],
            "name": "totalRefRewards",
            "outputs": [
                {
                    "internalType": "uint256",
                    "name": "",
                    "type": "uint256"
                }
            ],
            "stateMutability": "view",
            "type": "function"
        },
        {
            "inputs": [
                {
                    "internalType": "address",
                    "name": "_user",
                    "type": "address"
                }
            ],
            "name": "withdraw",
            "outputs": [],
            "stateMutability": "nonpayable",
            "type": "function"
        },
        {
            "inputs": [
                {
                    "internalType": "address",
                    "name": "_user",
                    "type": "address"
                }
            ],
            "name": "withdrawable",
            "outputs": [
                {
                    "internalType": "uint256",
                    "name": "amount",
                    "type": "uint256"
                }
            ],
            "stateMutability": "view",
            "type": "function"
        },
        {
            "stateMutability": "payable",
            "type": "receive"
        }
    ],
    "bytecode": "6080346200022d5762001bdf38819003601f8101601f191683016001600160401b0381118482101762000231578392829160405283396020928391810103126200022d57516001600160a01b038116908190036200022d576001916402540be40083556501001d1bf8006002556401a13b8600600355652d79883d20006004556200008962000245565b90601e8252600a818301525f91826040820152826060820152826080820152600654906005918260065580831062000202575b50600684528284209086855b848110620001ec5750505050620000de62000245565b81815260038382015283604082015283606082015283608082015260075482600755808310620001c1575b5093600784528284209486855b848110620001ab5750506103e8600855506009805460ff191687179055605a600a556073600b5583546001600160a01b03199081169091178455815416339081179091558252600f90526040812080546001600160a81b03191684179055600c5491505f19821462000197575001600c556040516119799081620002668239f35b634e487b7160e01b81526011600452602490fd5b8560ff8451169301928189015501879062000116565b60078552868385872092830192015b828110620001e057505062000109565b868155018790620001d0565b8560ff84511693019281850155018790620000c8565b60068552868385872092830192015b82811062000221575050620000bc565b86815501879062000211565b5f80fd5b634e487b7160e01b5f52604160045260245ffd5b6040519060a082016001600160401b03811183821017620002315760405256fe608060408181526004918236101561001f575b505050361561001d57005b005b5f9283803560e01c92836228d67b14611100575050816315e8392b1461109157816328cca7191461105857816329b8caff14611039578163313e70ee1461101b57816338e80f6814610fe45781633f5f63e414610f6f5781634728f71814610f5057816350188c0814610f3057816351cff8d914610dbf5781635216aeec14610da0578163536b5d9314610d4d5781636589fa8a14610d165781636b88405814610c6b5781636c52927914610c4c5781636e553f65146109545781636f7bc9be146108d5578163725fc2701461089a5783826378f156711461078d575081637f6581661461076957816382bfefc81461074157816385338e201461071157816388f71d8d1461064f5781638da5cb5b1461062657816392ab583a14610592578163a34f85a0146104fb578163ab6db199146104dc578163b9be8cdc1461045a578163bfe0e0201461043b578163ce513b6f1461040e578163d6d6817714610399578163d8de40641461034f578163dd5967c314610330578163e1e158a514610311578163f60a95dd14610249578163f90b3f5a1461020e57508063faafa907146101f05763fbd65482146101d35780610012565b346101ec57816003193601126101ec5751478152602090f35b5080fd5b50346101ec57816003193601126101ec576020906008549051908152f35b90503461024557602036600319011261024557600554903591906001600160a01b03163303610245576020925081600a5551908152f35b8280fd5b919050346102455780600319360112610245576102bf60208335809461026d611219565b60055490916001600160a01b0391821691899161028b3385146118ca565b885163a9059cbb60e01b81526001600160a01b03909416908401908152602081019590955291958694859391849160400190565b0393165af1801561030757602094506102da575b5051908152f35b6102f990843d8111610300575b6102f18183611317565b8101906114b8565b505f6102d3565b503d6102e7565b82513d86823e3d90fd5b5050346101ec57816003193601126101ec576020906001549051908152f35b5050346101ec57816003193601126101ec576020906002549051908152f35b905034610245576020366003190112610245573590811515809203610245576005546001600160a01b03163303610245576020925060ff196009541660ff83161760095551908152f35b5050346101ec57806003193601126101ec576103b36111ff565b6001600160a01b0316825260106020528082208054602435939084101561040b57506080926103e1916112b2565b50908154916001810154916003600283015492015492815194855260208501528301526060820152f35b80fd5b5050346101ec5760203660031901126101ec5760209061043461042f6111ff565b61169b565b9051908152f35b5050346101ec57816003193601126101ec57602090600e549051908152f35b91905034610245576020366003190112610245576104c360208335809460018060a01b03878160055416916104908333146118ca565b8154169287519687958694859363a9059cbb60e01b8552840160209093929193604081019460018060a01b031681520152565b03925af1801561030757602094506102da575051908152f35b5050346101ec57816003193601126101ec57602090600a549051908152f35b91905034610245578260031936011261024557825481516370a0823160e01b81523093810193909352602090839060249082906001600160a01b03165afa918215610588578392610551575b6020838351908152f35b9091506020813d8211610580575b8161056c60209383611317565b81010312610245576020925051905f610547565b3d915061055f565b81513d85823e3d90fd5b8383346101ec576020928360031936011261024557836001600160a01b036105b86111ff565b169160248451809481936370a0823160e01b835230908301525afa92831561061b5780936105e9575b505051908152f35b909192508382813d8311610614575b6106028183611317565b8101031261040b5750519083806105e1565b503d6105f8565b8251903d90823e3d90fd5b5050346101ec57816003193601126101ec5760055490516001600160a01b039091168152602090f35b8390346101ec5761065f36611265565b6005549092906001600160a01b0316330361070d5767ffffffffffffffff83116106fa57600160401b83116106fa5750600754826007558083106106cd575b50825b8281106106ac578380f35b60019060208335930192815f805160206119048339815191520155016106a1565b825f8051602061190483398151915291820191015b8181106106ef575061069e565b8481556001016106e2565b634e487b7160e01b845260419052602483fd5b8380fd5b5050346101ec57816003193601126101ec57606090600c5490600d5490600e549181519384526020840152820152f35b5050346101ec57816003193601126101ec57905490516001600160a01b039091168152602090f35b5050346101ec57816003193601126101ec5760209060ff6009541690519015158152f35b915091346101ec57816003193601126101ec576005546001600160a01b03908116903382900361070d578354168251916370a0823160e01b835230868401526020958684602481865afa938415610890579087949392918794610857575b50855163a9059cbb60e01b81526001600160a01b03909216908201908152602081019390935294859283919082906040015b03925af190811561084e5750610831578280f35b8161084792903d10610300576102f18183611317565b505f808280f35b513d85823e3d90fd5b8581969295503d8311610889575b61086f8183611317565b810103126108855792518693909261081d6107eb565b8580fd5b503d610865565b85513d88823e3d90fd5b9050346102455760203660031901126102455735600654811015610245576006602093525f8051602061192483398151915201549051908152f35b9050346102455760203660031901126102455760e0926001600160a01b0391908390836109006111ff565b168152600f6020522090815493600183015460028401549160056003860154948601549501549581519760ff81161515895260081c1660208801528601526060850152608084015260a083015260c0820152f35b8383346101ec57806003193601126101ec57823590610971611219565b903384526020600f81528185209060019182548610610c09576002549461099a8688111561145f565b6109b460038301966109ad8989546114ab565b111561145f565b875485516323b872dd60e01b815233818c0152306024820152604481018990526001600160a01b0393918590829060649082908e9089165af18015610bff57610be2575b50805460ff8116610b6b575080546001600160a81b031916600883901b610100600160a81b0316178517905516151580610b5f575b610b01575b610a3d600c546113cd565b600c555b3386526010815282862091600b5493610a5b600a5461137e565b92815195610a68876112cb565b865285019283528401918683526060850193428552805490600160401b821015610aee5790610a9b9184820181556112b2565b959095610adc57610ad698995090600394939291518655519085015551600284015551910155610acc8282546114ab565b9055600d546114ab565b600d5580f35b634e487b7160e01b8952888a52602489fd5b634e487b7160e01b8a5260418b5260248afd5b82518082600654918281520190600689525f8051602061192483398151915290895b8686838310610b4d57505050505090610b4181610b48930382611317565b86336114d0565b610a32565b84548652909401939283019201610b23565b5060ff60095416610a2d565b91505060081c16151580610bd6575b15610a415782518082600754918281520190600789525f8051602061190483398151915290895b8686838310610bc457505050505090610b4181610bbf930382611317565b610a41565b84548652909401939283019201610ba1565b5060ff60095416610b7a565b610bf890853d8711610300576102f18183611317565b508a6109f8565b87513d8c823e3d90fd5b835162461bcd60e51b8152808901839052601c60248201527f4d696e696d6f206465206465706f7369746f20616c63616e7a61646f000000006044820152606490fd5b5050346101ec57816003193601126101ec576020906003549051908152f35b8390346101ec57610c7b36611265565b6005549092906001600160a01b0316330361070d5767ffffffffffffffff83116106fa57600160401b83116106fa575060065482600655808310610ce9575b50825b828110610cc8578380f35b60019060208335930192815f80516020611924833981519152015501610cbd565b825f8051602061192483398151915291820191015b818110610d0b5750610cba565b848155600101610cfe565b90503461024557602036600319011261024557600554903591906001600160a01b03163303610245576020925081600b5551908152f35b5050346101ec5760203660031901126101ec57610d686111ff565b6005549092906001600160a01b0390811633036101ec57602093166bffffffffffffffffffffffff60a01b8254161790555160018152f35b5050346101ec57816003193601126101ec57602090600d549051908152f35b905034610245576020918260031936011261070d57610ddc6111ff565b92610de68461169b565b60018060a01b0394610e0986821692838952600f85526001868a200154906114ab565b956003548710610ee15786610e7e928592610e4a8b610e438560058c8e5494610e3486851115611872565b8c8152600f8b522001546114ab565b1115611872565b8a5416908a885180968195829463a9059cbb60e01b84528d840160209093929193604081019460018060a01b031681520152565b03925af18015610ed7579260059492600f92610eb59795610eba575b508852528520908560018301554290820155019182546114ab565b905580f35b610ed090833d8511610300576102f18183611317565b505f610e9a565b84513d89823e3d90fd5b845162461bcd60e51b81528087018590526024808201527f546865206d696e696d756d207769746864726177616c206c696d69742072656160448201526318da195960e21b6064820152608490fd5b5050346101ec57816003193601126101ec57602090610434600a5461137e565b5050346101ec57816003193601126101ec57602090600b549051908152f35b8390346101ec5760803660031901126101ec57600554606435919060443590602435908335906001600160a01b031633036108855780610fdb575b5080610fd2575b5080610fc9575b5081610fc2578280f35b5581808280f35b60035583610fb8565b60025584610fb1565b60015585610faa565b90503461024557602036600319011261024557600554903591906001600160a01b0316330361024557602092508160085551908152f35b90503461024557826003193601126102455760209250549051908152f35b5050346101ec57816003193601126101ec57602090600c549051908152f35b90503461024557602036600319011261024557359160075483101561040b575061108360209261122f565b91905490519160031b1c8152f35b5050346101ec57806003193601126101ec576110b76110ae6111ff565b60243590611402565b815192839260208080860192818752855180945286019401925b8281106110e057505050500390f35b83516001600160a01b0316855286955093810193928101926001016110d1565b8185849234610245576020938460031936011261070d5761111f6111ff565b6005546001600160a01b0390811691338390036111fb576370a0823160e01b8552308585015216918684602481865afa9384156108905790879493929187946111c6575b50855163a9059cbb60e01b81526001600160a01b03909216908201908152602081019390935294859283919082906040015b03925af190811561084e57506111a9578280f35b816111bf92903d10610300576102f18183611317565b5081808280f35b8581969295503d83116111f4575b6111de8183611317565b8101031261088557925186939092611195611163565b503d6111d4565b8680fd5b600435906001600160a01b038216820361121557565b5f80fd5b602435906001600160a01b038216820361121557565b6007548110156112515760075f525f8051602061190483398151915201905f90565b634e487b7160e01b5f52603260045260245ffd5b9060206003198301126112155760043567ffffffffffffffff9283821161121557806023830112156112155781600401359384116112155760248460051b83010111611215576024019190565b8054821015611251575f5260205f209060021b01905f90565b6080810190811067ffffffffffffffff8211176112e757604052565b634e487b7160e01b5f52604160045260245ffd5b60e0810190811067ffffffffffffffff8211176112e757604052565b90601f8019910116810190811067ffffffffffffffff8211176112e757604052565b8181029291811591840414171561134c57565b634e487b7160e01b5f52601160045260245ffd5b811561136a570490565b634e487b7160e01b5f52601260045260245ffd5b80156113a7576201518080820291808304820361134c5761139f9083611360565b036112155790565b505f90565b9081156113c75761139f6113c08284611339565b9283611360565b50505f90565b5f19811461134c5760010190565b6060518110156112515760051b60800190565b80518210156112515760209160051b010190565b5f905b82821061141457505050606090565b6001600160a01b039081165f818152600f6020818152604092839020546114599594600894939291851c8616611449896113db565b525f52525f2054901c16916113cd565b90611405565b1561146657565b60405162461bcd60e51b815260206004820152601c60248201527f4d6178696d6f206465206465706f7369746f20616c63616e7a61646f000000006044820152606490fd5b9190820180921161134c57565b90816020910312611215575180151581036112155790565b6040908151926114df846112fb565b5f95868552602090878287015287858701526060958887820152608092898483015261151b60a0968b888501528b60c0809501528a5190611402565b908a5b8a5181101561168d578b908a8a888160018060a01b039586611540878b6113ee565b51168152600f885220948c8351611556816112fb565b8a600589549960ff8b161515948585528660089c8d1c168d86015260018201549885019889526002820154998501998a526003978883015490860152600482015490850152015491015280611676575b6115be575b505050506115b991506113cd565b61151e565b6115c885896113ee565b511615611664576115d88461122f565b9054911b1c6115e6846113db565b526115fa6115f3846113db565b518b6113ac565b9354938415611660576115b99461161091611360565b611619846113db565b5261162e611626846113db565b5182516114ab565b905261163c611626836113db565b9052611647816113db565b51611655600e9182546114ab565b90555f8080806115ab565b8f80fd5b50505050505050509650505050505050565b506116808561122f565b905490831b1c15156115a6565b505050509650505050505050565b905f905f9260018060a01b038091168085526020600f81526040808720928151946116c5866112fb565b845460ff81161515875260081c1683860152600197848980960154848801526002948582015493606094858a01526003908184015460808b015260049960c060058c8701549660a08401978852015491015284868851611724816112cb565b8281528286820152828a8201520152849c5b61174a575b50505050505050505050909150565b808552601083528685208d8154111561186c578d611767916112b2565b508751611773816112cb565b815481528a8201549185820192808452858c830154928c85019384520154906117ad8b8501918383528a518481115f1461186557936114ab565b42111561185d575184516117c0916114ab565b915b8282106117ea575b50505050506117df899a9b9c9d9998996113cd565b9c9b9a999897611736565b9f9495969798999a9b9c9d9e9f5190820391821161184a576118366117df948f9d9c9b9a999897969361183d9561182661182e92606496611339565b905190611339565b905190611360565b04906114ab565b9c9b9a99985f80806117ca565b634e487b7160e01b8a5260118f5260248afd5b5042916117c2565b50836114ab565b5061173b565b1561187957565b60405162461bcd60e51b8152602060048201526024808201527f546865206d6178696d756d207769746864726177616c206c696d69742072656160448201526318da195960e21b6064820152608490fd5b156118d157565b60405162461bcd60e51b815260206004820152600a60248201526937b7363c9037bbb732b960b11b6044820152606490fdfea66cc928b5edb82af9bd49922954155ab7b0942694bea4ce44661d9a8736c688f652222313e28459528d920b65115c16c04f3efc82aaedc97be59f3f377c0d3fa264697066735822122085759a1a1968a3f6cb22d4bb78ddb2a9301c815d2d0dc54732e1f5c43cec4bad64736f6c63430008140033",
    "sourcePath": "c:/Users/STC/Documents/GitHub/SMART-SITE-CAPITAL/contracts/v1/EarnSITE.sol",
    "compiler": {
        "name": "solc",
        "version": "0.8.20+commit.a1b79de6"
    },
    "functionHashes": {
        "ChangeTokenUSDT(address)": "536b5d93",
        "InContractOTRO(address)": "92ab583a",
        "InContractSITE()": "a34f85a0",
        "InContractTRX()": "fbd65482",
        "MAX_DEPOSIT()": "dd5967c3",
        "MAX_RETIRO()": "313e70ee",
        "MIN_DEPOSIT()": "e1e158a5",
        "MIN_RETIRO()": "6c529279",
        "TOKEN()": "82bfefc8",
        "basePorcientos()": "faafa907",
        "column(address,uint256)": "15e8392b",
        "controlReferidos(bool)": "d8de4064",
        "deposit(uint256,address)": "6e553f65",
        "deposits(address,uint256)": "d6d68177",
        "dias()": "ab6db199",
        "investors(address)": "6f7bc9be",
        "owner()": "8da5cb5b",
        "porcent()": "4728f718",
        "porcientos(uint256)": "28cca719",
        "primervez(uint256)": "725fc270",
        "redimOTRO01(address)": "0028d67b",
        "redimOTRO02(uint256,address)": "f60a95dd",
        "redimSITE01()": "78f15671",
        "redimSITE02(uint256)": "b9be8cdc",
        "setBase(uint256)": "38e80f68",
        "setMinimoMaximos(uint256,uint256,uint256,uint256)": "3f5f63e4",
        "setPorcientos(uint256[])": "88f71d8d",
        "setPrimeravezPorcientos(uint256[])": "6b884058",
        "setRetorno(uint256)": "6589fa8a",
        "setTiempo(uint256)": "f90b3f5a",
        "setstate()": "85338e20",
        "sisReferidos()": "7f658166",
        "tiempo()": "50188c08",
        "totalInvested()": "5216aeec",
        "totalInvestors()": "29b8caff",
        "totalRefRewards()": "bfe0e020",
        "withdraw(address)": "51cff8d9",
        "withdrawable(address)": "ce513b6f"
    },
    "gasEstimates": {
        "creation": {
            "codeDepositCost": "1304200",
            "executionCost": "infinite",
            "totalCost": "infinite"
        },
        "external": {
            "": "962",
            "ChangeTokenUSDT(address)": "26871",
            "InContractOTRO(address)": "infinite",
            "InContractSITE()": "infinite",
            "InContractTRX()": "994",
            "MAX_DEPOSIT()": "2993",
            "MAX_RETIRO()": "2372",
            "MIN_DEPOSIT()": "3015",
            "MIN_RETIRO()": "2592",
            "TOKEN()": "2750",
            "basePorcientos()": "3081",
            "column(address,uint256)": "infinite",
            "controlReferidos(bool)": "27271",
            "deposit(uint256,address)": "infinite",
            "deposits(address,uint256)": "13843",
            "dias()": "2861",
            "investors(address)": "13468",
            "owner()": "2816",
            "porcent()": "2438",
            "porcientos(uint256)": "infinite",
            "primervez(uint256)": "infinite",
            "redimOTRO01(address)": "infinite",
            "redimOTRO02(uint256,address)": "infinite",
            "redimSITE01()": "infinite",
            "redimSITE02(uint256)": "infinite",
            "setBase(uint256)": "24548",
            "setMinimoMaximos(uint256,uint256,uint256,uint256)": "91006",
            "setPorcientos(uint256[])": "infinite",
            "setPrimeravezPorcientos(uint256[])": "infinite",
            "setRetorno(uint256)": "24702",
            "setTiempo(uint256)": "25213",
            "setstate()": "6993",
            "sisReferidos()": "2719",
            "tiempo()": "2626",
            "totalInvested()": "2504",
            "totalInvestors()": "2350",
            "totalRefRewards()": "2905",
            "withdraw(address)": "infinite",
            "withdrawable(address)": "infinite"
        },
        "internal": {
            "rewardReferers(address,uint256,uint256[] memory)": "infinite"
        }
    }
}