{
    "contractName": "SITECapital",
    "abi": [
        {
            "inputs": [
                {
                    "internalType": "address",
                    "name": "_tokenTRC20",
                    "type": "address"
                }
            ],
            "stateMutability": "nonpayable",
            "type": "constructor"
        },
        {
            "stateMutability": "payable",
            "type": "fallback"
        },
        {
            "inputs": [
                {
                    "internalType": "address",
                    "name": "_tokenTRC20",
                    "type": "address"
                }
            ],
            "name": "ChangeTokenUSDT",
            "outputs": [
                {
                    "internalType": "bool",
                    "name": "",
                    "type": "bool"
                }
            ],
            "stateMutability": "nonpayable",
            "type": "function"
        },
        {
            "inputs": [
                {
                    "internalType": "address",
                    "name": "_token",
                    "type": "address"
                }
            ],
            "name": "InContractOTRO",
            "outputs": [
                {
                    "internalType": "uint256",
                    "name": "",
                    "type": "uint256"
                }
            ],
            "stateMutability": "view",
            "type": "function"
        },
        {
            "inputs": [],
            "name": "InContractSITE",
            "outputs": [
                {
                    "internalType": "uint256",
                    "name": "",
                    "type": "uint256"
                }
            ],
            "stateMutability": "view",
            "type": "function"
        },
        {
            "inputs": [],
            "name": "InContractTRX",
            "outputs": [
                {
                    "internalType": "uint256",
                    "name": "",
                    "type": "uint256"
                }
            ],
            "stateMutability": "view",
            "type": "function"
        },
        {
            "inputs": [],
            "name": "MIN_DEPOSIT",
            "outputs": [
                {
                    "internalType": "uint256",
                    "name": "",
                    "type": "uint256"
                }
            ],
            "stateMutability": "view",
            "type": "function"
        },
        {
            "inputs": [],
            "name": "MIN_RETIRO",
            "outputs": [
                {
                    "internalType": "uint256",
                    "name": "",
                    "type": "uint256"
                }
            ],
            "stateMutability": "view",
            "type": "function"
        },
        {
            "inputs": [],
            "name": "TOKEN",
            "outputs": [
                {
                    "internalType": "address",
                    "name": "",
                    "type": "address"
                }
            ],
            "stateMutability": "view",
            "type": "function"
        },
        {
            "inputs": [],
            "name": "basePorcientos",
            "outputs": [
                {
                    "internalType": "uint256",
                    "name": "",
                    "type": "uint256"
                }
            ],
            "stateMutability": "view",
            "type": "function"
        },
        {
            "inputs": [
                {
                    "internalType": "address",
                    "name": "_from",
                    "type": "address"
                },
                {
                    "internalType": "uint256",
                    "name": "_lengt",
                    "type": "uint256"
                }
            ],
            "name": "column",
            "outputs": [
                {
                    "internalType": "address[]",
                    "name": "res",
                    "type": "address[]"
                }
            ],
            "stateMutability": "view",
            "type": "function"
        },
        {
            "inputs": [
                {
                    "internalType": "bool",
                    "name": "_true_false",
                    "type": "bool"
                }
            ],
            "name": "controlReferidos",
            "outputs": [
                {
                    "internalType": "bool",
                    "name": "",
                    "type": "bool"
                }
            ],
            "stateMutability": "nonpayable",
            "type": "function"
        },
        {
            "inputs": [
                {
                    "internalType": "uint256",
                    "name": "_value",
                    "type": "uint256"
                },
                {
                    "internalType": "address",
                    "name": "_sponsor",
                    "type": "address"
                }
            ],
            "name": "deposit",
            "outputs": [],
            "stateMutability": "nonpayable",
            "type": "function"
        },
        {
            "inputs": [
                {
                    "internalType": "address",
                    "name": "",
                    "type": "address"
                },
                {
                    "internalType": "uint256",
                    "name": "",
                    "type": "uint256"
                }
            ],
            "name": "deposits",
            "outputs": [
                {
                    "internalType": "uint256",
                    "name": "porciento",
                    "type": "uint256"
                },
                {
                    "internalType": "uint256",
                    "name": "tiempo",
                    "type": "uint256"
                },
                {
                    "internalType": "uint256",
                    "name": "amount",
                    "type": "uint256"
                },
                {
                    "internalType": "uint256",
                    "name": "at",
                    "type": "uint256"
                }
            ],
            "stateMutability": "view",
            "type": "function"
        },
        {
            "inputs": [],
            "name": "dias",
            "outputs": [
                {
                    "internalType": "uint256",
                    "name": "",
                    "type": "uint256"
                }
            ],
            "stateMutability": "view",
            "type": "function"
        },
        {
            "inputs": [
                {
                    "internalType": "address",
                    "name": "",
                    "type": "address"
                }
            ],
            "name": "investors",
            "outputs": [
                {
                    "internalType": "bool",
                    "name": "registered",
                    "type": "bool"
                },
                {
                    "internalType": "address",
                    "name": "sponsor",
                    "type": "address"
                },
                {
                    "internalType": "uint256",
                    "name": "balanceRef",
                    "type": "uint256"
                },
                {
                    "internalType": "uint256",
                    "name": "totalRef",
                    "type": "uint256"
                },
                {
                    "internalType": "uint256",
                    "name": "invested",
                    "type": "uint256"
                },
                {
                    "internalType": "uint256",
                    "name": "paidAt",
                    "type": "uint256"
                },
                {
                    "internalType": "uint256",
                    "name": "withdrawn",
                    "type": "uint256"
                }
            ],
            "stateMutability": "view",
            "type": "function"
        },
        {
            "inputs": [],
            "name": "owner",
            "outputs": [
                {
                    "internalType": "address",
                    "name": "",
                    "type": "address"
                }
            ],
            "stateMutability": "view",
            "type": "function"
        },
        {
            "inputs": [],
            "name": "porcent",
            "outputs": [
                {
                    "internalType": "uint256",
                    "name": "",
                    "type": "uint256"
                }
            ],
            "stateMutability": "view",
            "type": "function"
        },
        {
            "inputs": [
                {
                    "internalType": "uint256",
                    "name": "",
                    "type": "uint256"
                }
            ],
            "name": "porcientos",
            "outputs": [
                {
                    "internalType": "uint256",
                    "name": "",
                    "type": "uint256"
                }
            ],
            "stateMutability": "view",
            "type": "function"
        },
        {
            "inputs": [
                {
                    "internalType": "uint256",
                    "name": "",
                    "type": "uint256"
                }
            ],
            "name": "primervez",
            "outputs": [
                {
                    "internalType": "uint256",
                    "name": "",
                    "type": "uint256"
                }
            ],
            "stateMutability": "view",
            "type": "function"
        },
        {
            "inputs": [
                {
                    "internalType": "address",
                    "name": "_token",
                    "type": "address"
                }
            ],
            "name": "redimOTRO01",
            "outputs": [],
            "stateMutability": "nonpayable",
            "type": "function"
        },
        {
            "inputs": [
                {
                    "internalType": "uint256",
                    "name": "_value",
                    "type": "uint256"
                },
                {
                    "internalType": "address",
                    "name": "_token",
                    "type": "address"
                }
            ],
            "name": "redimOTRO02",
            "outputs": [
                {
                    "internalType": "uint256",
                    "name": "",
                    "type": "uint256"
                }
            ],
            "stateMutability": "nonpayable",
            "type": "function"
        },
        {
            "inputs": [],
            "name": "redimSITE01",
            "outputs": [],
            "stateMutability": "nonpayable",
            "type": "function"
        },
        {
            "inputs": [
                {
                    "internalType": "uint256",
                    "name": "_value",
                    "type": "uint256"
                }
            ],
            "name": "redimSITE02",
            "outputs": [
                {
                    "internalType": "uint256",
                    "name": "",
                    "type": "uint256"
                }
            ],
            "stateMutability": "nonpayable",
            "type": "function"
        },
        {
            "inputs": [
                {
                    "internalType": "uint256",
                    "name": "_100",
                    "type": "uint256"
                }
            ],
            "name": "setBase",
            "outputs": [
                {
                    "internalType": "uint256",
                    "name": "",
                    "type": "uint256"
                }
            ],
            "stateMutability": "nonpayable",
            "type": "function"
        },
        {
            "inputs": [
                {
                    "internalType": "uint256",
                    "name": "_MIN_DEPOSIT",
                    "type": "uint256"
                },
                {
                    "internalType": "uint256",
                    "name": "_MIN_RETIRO",
                    "type": "uint256"
                }
            ],
            "name": "setMinimoMaximos",
            "outputs": [],
            "stateMutability": "nonpayable",
            "type": "function"
        },
        {
            "inputs": [
                {
                    "internalType": "uint256[]",
                    "name": "_values",
                    "type": "uint256[]"
                }
            ],
            "name": "setPorcientos",
            "outputs": [],
            "stateMutability": "nonpayable",
            "type": "function"
        },
        {
            "inputs": [
                {
                    "internalType": "uint256[]",
                    "name": "_values",
                    "type": "uint256[]"
                }
            ],
            "name": "setPrimeravezPorcientos",
            "outputs": [],
            "stateMutability": "nonpayable",
            "type": "function"
        },
        {
            "inputs": [
                {
                    "internalType": "uint256",
                    "name": "_porcentaje",
                    "type": "uint256"
                }
            ],
            "name": "setRetorno",
            "outputs": [
                {
                    "internalType": "uint256",
                    "name": "",
                    "type": "uint256"
                }
            ],
            "stateMutability": "nonpayable",
            "type": "function"
        },
        {
            "inputs": [
                {
                    "internalType": "uint256",
                    "name": "_dias",
                    "type": "uint256"
                }
            ],
            "name": "setTiempo",
            "outputs": [
                {
                    "internalType": "uint256",
                    "name": "",
                    "type": "uint256"
                }
            ],
            "stateMutability": "nonpayable",
            "type": "function"
        },
        {
            "inputs": [],
            "name": "setstate",
            "outputs": [
                {
                    "internalType": "uint256",
                    "name": "Investors",
                    "type": "uint256"
                },
                {
                    "internalType": "uint256",
                    "name": "Invested",
                    "type": "uint256"
                },
                {
                    "internalType": "uint256",
                    "name": "RefRewards",
                    "type": "uint256"
                }
            ],
            "stateMutability": "view",
            "type": "function"
        },
        {
            "inputs": [],
            "name": "sisReferidos",
            "outputs": [
                {
                    "internalType": "bool",
                    "name": "",
                    "type": "bool"
                }
            ],
            "stateMutability": "view",
            "type": "function"
        },
        {
            "inputs": [],
            "name": "tiempo",
            "outputs": [
                {
                    "internalType": "uint256",
                    "name": "",
                    "type": "uint256"
                }
            ],
            "stateMutability": "view",
            "type": "function"
        },
        {
            "inputs": [],
            "name": "totalInvested",
            "outputs": [
                {
                    "internalType": "uint256",
                    "name": "",
                    "type": "uint256"
                }
            ],
            "stateMutability": "view",
            "type": "function"
        },
        {
            "inputs": [],
            "name": "totalInvestors",
            "outputs": [
                {
                    "internalType": "uint256",
                    "name": "",
                    "type": "uint256"
                }
            ],
            "stateMutability": "view",
            "type": "function"
        },
        {
            "inputs": [],
            "name": "totalRefRewards",
            "outputs": [
                {
                    "internalType": "uint256",
                    "name": "",
                    "type": "uint256"
                }
            ],
            "stateMutability": "view",
            "type": "function"
        },
        {
            "inputs": [
                {
                    "internalType": "address",
                    "name": "_user",
                    "type": "address"
                }
            ],
            "name": "withdraw",
            "outputs": [],
            "stateMutability": "nonpayable",
            "type": "function"
        },
        {
            "inputs": [
                {
                    "internalType": "address",
                    "name": "_user",
                    "type": "address"
                }
            ],
            "name": "withdrawable",
            "outputs": [
                {
                    "internalType": "uint256",
                    "name": "amount",
                    "type": "uint256"
                }
            ],
            "stateMutability": "view",
            "type": "function"
        },
        {
            "stateMutability": "payable",
            "type": "receive"
        }
    ],
    "bytecode": "608034620001e0576200198b38819003601f8101601f191683016001600160401b03811184821017620001e457839282916040528339602092839181010312620001e057516001600160a01b03811690819003620001e05760019163b2d05e008355637735940060025562000073620001f8565b600a815260045484600455808510620001b3575b50905f91600483528183209085845b8181106200019d5750505050620000ac620001f8565b600381526005548560055580861062000172575b5092600583528183209385845b8181106200015c575060646006556007805460ff1916905560b4600855608260095584546001600160a01b03199081168417865560038054339216821790558552600d84526040852080546001600160a81b03191682179055600a54855f19821462000148575001600a556040516117729081620002198239f35b634e487b7160e01b81526011600452602490fd5b8460ff84511693019281880155018690620000cd565b60058452858084862092830192015b82811062000191575050620000c0565b85815501869062000181565b8460ff8451169301928185015501869062000096565b5f60048152858085832093840193015b838110620001d45750505062000087565b828155018690620001c3565b5f80fd5b634e487b7160e01b5f52604160045260245ffd5b60405190602082016001600160401b03811183821017620001e45760405256fe608060408181526004918236101561001f575b505050361561001d57005b005b5f9283803560e01c92836228d67b1461103d57505081630bb4f1c314610ff457816315e8392b14610f8557816328cca71914610f4c57816329b8caff14610f2d57816338e80f6814610ef65781634728f71814610ed757816350188c0814610eb757816351cff8d914610d7c5781635216aeec14610d5d578163536b5d9314610d0a5781636589fa8a14610cd35781636b88405814610c2b5781636c52927914610c0c5781636e553f651461091e5781636f7bc9be1461089f578163725fc270146108655783826378f1567114610758575081637f6581661461073457816382bfefc81461070c57816385338e20146106dc57816388f71d8d1461061a5781638da5cb5b146105f157816392ab583a1461055d578163a34f85a0146104c6578163ab6db199146104a7578163b9be8cdc14610425578163bfe0e02014610406578163ce513b6f146103d9578163d6d6817714610364578163d8de40641461031a578163e1e158a5146102fb578163f60a95dd14610233578163f90b3f5a146101f857508063faafa907146101da5763fbd65482146101bd5780610012565b346101d657816003193601126101d65751478152602090f35b5080fd5b50346101d657816003193601126101d6576020906006549051908152f35b90503461022f57602036600319011261022f57600354903591906001600160a01b0316330361022f57602092508160085551908152f35b8280fd5b9190503461022f578060031936011261022f576102a9602083358094610257611156565b60035490916001600160a01b039182169189916102753385146116c3565b885163a9059cbb60e01b81526001600160a01b03909416908401908152602081019590955291958694859391849160400190565b0393165af180156102f157602094506102c4575b5051908152f35b6102e390843d81116102ea575b6102db8183611238565b8101906113c1565b505f6102bd565b503d6102d1565b82513d86823e3d90fd5b5050346101d657816003193601126101d6576020906001549051908152f35b90503461022f57602036600319011261022f57359081151580920361022f576003546001600160a01b0316330361022f576020925060ff196007541660ff83161760075551908152f35b5050346101d657806003193601126101d65761037e61113c565b6001600160a01b03168252600e602052808220805460243593908410156103d657506080926103ac916111ef565b50908154916001810154916003600283015492015492815194855260208501528301526060820152f35b80fd5b5050346101d65760203660031901126101d6576020906103ff6103fa61113c565b6114c0565b9051908152f35b5050346101d657816003193601126101d657602090600c549051908152f35b9190503461022f57602036600319011261022f5761048e60208335809460018060a01b038781600354169161045b8333146116c3565b8154169287519687958694859363a9059cbb60e01b8552840160209093929193604081019460018060a01b031681520152565b03925af180156102f157602094506102c4575051908152f35b5050346101d657816003193601126101d6576020906008549051908152f35b9190503461022f578260031936011261022f57825481516370a0823160e01b81523093810193909352602090839060249082906001600160a01b03165afa91821561055357839261051c575b6020838351908152f35b9091506020813d821161054b575b8161053760209383611238565b8101031261022f576020925051905f610512565b3d915061052a565b81513d85823e3d90fd5b8383346101d6576020928360031936011261022f57836001600160a01b0361058361113c565b169160248451809481936370a0823160e01b835230908301525afa9283156105e65780936105b4575b505051908152f35b909192508382813d83116105df575b6105cd8183611238565b810103126103d65750519083806105ac565b503d6105c3565b8251903d90823e3d90fd5b5050346101d657816003193601126101d65760035490516001600160a01b039091168152602090f35b8390346101d65761062a366111a2565b6003549092906001600160a01b031633036106d85767ffffffffffffffff83116106c557600160401b83116106c5575060055482600555808310610698575b50825b828110610677578380f35b60019060208335930192815f805160206116fd83398151915201550161066c565b825f805160206116fd83398151915291820191015b8181106106ba5750610669565b8481556001016106ad565b634e487b7160e01b845260419052602483fd5b8380fd5b5050346101d657816003193601126101d657606090600a5490600b5490600c549181519384526020840152820152f35b5050346101d657816003193601126101d657905490516001600160a01b039091168152602090f35b5050346101d657816003193601126101d65760209060ff6007541690519015158152f35b915091346101d657816003193601126101d6576003546001600160a01b0390811690338290036106d8578354168251916370a0823160e01b835230868401526020958684602481865afa93841561085b579087949392918794610822575b50855163a9059cbb60e01b81526001600160a01b03909216908201908152602081019390935294859283919082906040015b03925af190811561081957506107fc578280f35b8161081292903d106102ea576102db8183611238565b505f808280f35b513d85823e3d90fd5b8581969295503d8311610854575b61083a8183611238565b81010312610850579251869390926107e86107b6565b8580fd5b503d610830565b85513d88823e3d90fd5b90503461022f57602036600319011261022f5780359080548210156106d857602093525f8051602061171d83398151915201549051908152f35b90503461022f57602036600319011261022f5760e0926001600160a01b0391908390836108ca61113c565b168152600d6020522090815493600183015460028401549160056003860154948601549501549581519760ff81161515895260081c1660208801528601526060850152608084015260a083015260c0820152f35b8383346101d657806003193601126101d65782359061093b611156565b933384526020600d81528285209260019687548610610bca57865482516323b872dd60e01b81523386820152306024820152604481018890526001600160a01b0392918590829060649082908d9088165af18015610bc057908a939291610ba3575b50865460ff8116610b285750865460ff19811684178855918116151580610b1c575b610a99575b5050506109d2600a54611306565b600a555b338652600e825280862091600954916109f060085461129f565b918151936109fd85611208565b845283019182528201918683526060810193428552805490600160401b821015610a865790610a30918b820181556111ef565b959095610a74575091610a6e9798600396959492879451865551908501555160028401555191015501610a648282546113d9565b9055600b546113d9565b600b5580f35b634e487b7160e01b8952889052602488fd5b634e487b7160e01b8a526041875260248afd5b6001600160a81b031990911660089190911b610100600160a81b03161717845580518354808252848852839190818301905f8051602061171d833981519152908b8b5b828110610b075750505050610aff925081610af8910382611238565b86336113e6565b8688806109c4565b83548552889690940193928101928101610adc565b5060ff600754166109bf565b9192505060081c16151580610b97575b156109d657818151808260055491828152019060058a525f805160206116fd833981519152908b8b5b828110610b825750505050610b7d925081610af8910382611238565b6109d6565b83548552889690940193928101928101610b61565b5060ff60075416610b38565b610bb990863d88116102ea576102db8183611238565b508a61099d565b84513d8b823e3d90fd5b505162461bcd60e51b815291820152601c60248201527f4d696e696d6f206465206465706f7369746f20616c63616e7a61646f00000000604482015260649150fd5b5050346101d657816003193601126101d6576020906002549051908152f35b8390346101d657610c3b366111a2565b6003549092906001600160a01b031633036106d85767ffffffffffffffff83116106c557600160401b83116106c5578281549155808310610ca6575b50825b828110610c85578380f35b60019060208335930192815f8051602061171d833981519152015501610c7a565b825f8051602061171d83398151915291820191015b818110610cc85750610c77565b848155600101610cbb565b90503461022f57602036600319011261022f57600354903591906001600160a01b0316330361022f57602092508160095551908152f35b5050346101d65760203660031901126101d657610d2561113c565b6003549092906001600160a01b0390811633036101d657602093166bffffffffffffffffffffffff60a01b8254161790555160018152f35b5050346101d657816003193601126101d657602090600b549051908152f35b90503461022f57602091826003193601126106d857610d9961113c565b92610da3846114c0565b60018060a01b0394610dc686821692838952600d85526001868a200154906113d9565b956002548710610e68578754855163a9059cbb60e01b81526001600160a01b039093168784019081526020810189905285928492169082908b90829060400103925af18015610e5e579260059492600d92610e3c9795610e41575b508852528520908560018301554290820155019182546113d9565b905580f35b610e5790833d85116102ea576102db8183611238565b505f610e21565b84513d89823e3d90fd5b845162461bcd60e51b81528087018590526024808201527f546865206d696e696d756d207769746864726177616c206c696d69742072656160448201526318da195960e21b6064820152608490fd5b5050346101d657816003193601126101d6576020906103ff60085461129f565b5050346101d657816003193601126101d6576020906009549051908152f35b90503461022f57602036600319011261022f57600354903591906001600160a01b0316330361022f57602092508160065551908152f35b5050346101d657816003193601126101d657602090600a549051908152f35b90503461022f57602036600319011261022f5735916005548310156103d65750610f7760209261116c565b91905490519160031b1c8152f35b5050346101d657806003193601126101d657610fab610fa261113c565b60243590611328565b815192839260208080860192818752855180945286019401925b828110610fd457505050500390f35b83516001600160a01b031685528695509381019392810192600101610fc5565b9190503461022f573660031901126101d6576003546024359135906001600160a01b0316330361022f5780611034575b508061102e575080f35b60025580f35b6001555f611024565b818584923461022f57602093846003193601126106d85761105c61113c565b6003546001600160a01b039081169133839003611138576370a0823160e01b8552308585015216918684602481865afa93841561085b579087949392918794611103575b50855163a9059cbb60e01b81526001600160a01b03909216908201908152602081019390935294859283919082906040015b03925af190811561081957506110e6578280f35b816110fc92903d106102ea576102db8183611238565b5081808280f35b8581969295503d8311611131575b61111b8183611238565b81010312610850579251869390926110d26110a0565b503d611111565b8680fd5b600435906001600160a01b038216820361115257565b5f80fd5b602435906001600160a01b038216820361115257565b60055481101561118e5760055f525f805160206116fd83398151915201905f90565b634e487b7160e01b5f52603260045260245ffd5b9060206003198301126111525760043567ffffffffffffffff9283821161115257806023830112156111525781600401359384116111525760248460051b83010111611152576024019190565b805482101561118e575f5260205f209060021b01905f90565b6080810190811067ffffffffffffffff82111761122457604052565b634e487b7160e01b5f52604160045260245ffd5b90601f8019910116810190811067ffffffffffffffff82111761122457604052565b8181029291811591840414171561126d57565b634e487b7160e01b5f52601160045260245ffd5b811561128b570490565b634e487b7160e01b5f52601260045260245ffd5b80156112c8576201518080820291808304820361126d576112c09083611281565b036111525790565b505f90565b9081156112e8576112c06112e1828461125a565b9283611281565b50505f90565b67ffffffffffffffff81116112245760051b60200190565b5f19811461126d5760010190565b805182101561118e5760209160051b010190565b90611332816112ee565b91604061134181519485611238565b828452601f19611350846112ee565b0160209036828701375f925b84841061136c575b505050505090565b60018060a01b0380911690815f52600d808452845f20549082600892831c169384156113b8576113b2946113a0898c611314565b525f528452845f2054901c1693611306565b9261135c565b50505050611364565b90816020910312611152575180151581036111525790565b9190820180921161126d57565b6113f39193925190611328565b915f5b83518110156114ba576114088161116c565b9054600391821b1c156114b35761142d906114228361116c565b9054911b1c836112cd565b90600654918215611152576114ae9261144591611281565b60026001600160a01b038061145a858a611314565b51165f52600d60208181526040926001845f20016114798782546113d9565b9055611485878c611314565b51165f52525f20016114988282546113d9565b90556114a7600c9182546113d9565b9055611306565b6113f6565b5050509050565b50509050565b905f915f60018060a01b03809216808252602090600d825260408084209181519560e0870187811067ffffffffffffffff8211176116af5783999897969995949552845460ff81161515875260081c1683860152600197848980960154848801526002948582015493606094858a01526003908184015460808b015260049960c060058c8701549660a0840197885201549101528486885161156181611208565b8281528286820152828a8201520152849c5b611587575b50505050505050505050909150565b808552600e83528685208d815411156116a9578d6115a4916111ef565b5087516115b081611208565b815481528a8201549185820192808452858c830154928c85019384520154906115ea8b8501918383528a518481115f146116a257936113d9565b42111561169a575184516115fd916113d9565b915b828210611627575b505050505061161c899a9b9c9d999899611306565b9c9b9a999897611573565b9f9495969798999a9b9c9d9e9f519082039182116116875761167361161c948f9d9c9b9a999897969361167a9561166361166b9260649661125a565b90519061125a565b905190611281565b04906113d9565b9c9b9a99985f8080611607565b634e487b7160e01b8a5260118f5260248afd5b5042916115ff565b50836113d9565b50611578565b634e487b7160e01b87526041600452602487fd5b156116ca57565b60405162461bcd60e51b815260206004820152600a60248201526937b7363c9037bbb732b960b11b6044820152606490fdfe036b6384b5eca791c62761152d0c79bb0604c104a5fb6f4eb0703f3154bb3db08a35acfbc15ff81a39ae7d344fd709f28e8600b4aa8c65c6b64bfe7fe36bd19ba2646970667358221220ff1c911f9a5eb65a7f4cc3711a80532974dd91a830972fa3c6a8182465bb7d6164736f6c63430008140033",
    "sourcePath": "c:/Users/STC/Documents/GitHub/SMART-SITE-CAPITAL/contracts/v1/EarnSITE.sol",
    "compiler": {
        "name": "solc",
        "version": "0.8.20+commit.a1b79de6"
    },
    "functionHashes": {
        "ChangeTokenUSDT(address)": "536b5d93",
        "InContractOTRO(address)": "92ab583a",
        "InContractSITE()": "a34f85a0",
        "InContractTRX()": "fbd65482",
        "MIN_DEPOSIT()": "e1e158a5",
        "MIN_RETIRO()": "6c529279",
        "TOKEN()": "82bfefc8",
        "basePorcientos()": "faafa907",
        "column(address,uint256)": "15e8392b",
        "controlReferidos(bool)": "d8de4064",
        "deposit(uint256,address)": "6e553f65",
        "deposits(address,uint256)": "d6d68177",
        "dias()": "ab6db199",
        "investors(address)": "6f7bc9be",
        "owner()": "8da5cb5b",
        "porcent()": "4728f718",
        "porcientos(uint256)": "28cca719",
        "primervez(uint256)": "725fc270",
        "redimOTRO01(address)": "0028d67b",
        "redimOTRO02(uint256,address)": "f60a95dd",
        "redimSITE01()": "78f15671",
        "redimSITE02(uint256)": "b9be8cdc",
        "setBase(uint256)": "38e80f68",
        "setMinimoMaximos(uint256,uint256)": "0bb4f1c3",
        "setPorcientos(uint256[])": "88f71d8d",
        "setPrimeravezPorcientos(uint256[])": "6b884058",
        "setRetorno(uint256)": "6589fa8a",
        "setTiempo(uint256)": "f90b3f5a",
        "setstate()": "85338e20",
        "sisReferidos()": "7f658166",
        "tiempo()": "50188c08",
        "totalInvested()": "5216aeec",
        "totalInvestors()": "29b8caff",
        "totalRefRewards()": "bfe0e020",
        "withdraw(address)": "51cff8d9",
        "withdrawable(address)": "ce513b6f"
    },
    "gasEstimates": {
        "creation": {
            "codeDepositCost": "1200400",
            "executionCost": "infinite",
            "totalCost": "infinite"
        },
        "external": {
            "": "918",
            "ChangeTokenUSDT(address)": "26849",
            "InContractOTRO(address)": "infinite",
            "InContractSITE()": "infinite",
            "InContractTRX()": "950",
            "MIN_DEPOSIT()": "2971",
            "MIN_RETIRO()": "2570",
            "TOKEN()": "2728",
            "basePorcientos()": "3037",
            "column(address,uint256)": "infinite",
            "controlReferidos(bool)": "27249",
            "deposit(uint256,address)": "infinite",
            "deposits(address,uint256)": "13821",
            "dias()": "2839",
            "investors(address)": "13446",
            "owner()": "2794",
            "porcent()": "2416",
            "porcientos(uint256)": "infinite",
            "primervez(uint256)": "infinite",
            "redimOTRO01(address)": "infinite",
            "redimOTRO02(uint256,address)": "infinite",
            "redimSITE01()": "infinite",
            "redimSITE02(uint256)": "infinite",
            "setBase(uint256)": "24548",
            "setMinimoMaximos(uint256,uint256)": "46590",
            "setPorcientos(uint256[])": "infinite",
            "setPrimeravezPorcientos(uint256[])": "infinite",
            "setRetorno(uint256)": "24680",
            "setTiempo(uint256)": "25169",
            "setstate()": "6971",
            "sisReferidos()": "2697",
            "tiempo()": "2604",
            "totalInvested()": "2482",
            "totalInvestors()": "2372",
            "totalRefRewards()": "2883",
            "withdraw(address)": "infinite",
            "withdrawable(address)": "infinite"
        },
        "internal": {
            "rewardReferers(address,uint256,uint256[] memory)": "infinite"
        }
    }
}